{
  "contractName": "BurnableToken",
  "abi": [
    {
      "constant": true,
      "inputs": [],
      "name": "totalSupply",
      "outputs": [
        {
          "name": "",
          "type": "uint256"
        }
      ],
      "payable": false,
      "stateMutability": "view",
      "type": "function"
    },
    {
      "constant": true,
      "inputs": [
        {
          "name": "_owner",
          "type": "address"
        }
      ],
      "name": "balanceOf",
      "outputs": [
        {
          "name": "balance",
          "type": "uint256"
        }
      ],
      "payable": false,
      "stateMutability": "view",
      "type": "function"
    },
    {
      "constant": false,
      "inputs": [
        {
          "name": "_to",
          "type": "address"
        },
        {
          "name": "_value",
          "type": "uint256"
        }
      ],
      "name": "transfer",
      "outputs": [
        {
          "name": "",
          "type": "bool"
        }
      ],
      "payable": false,
      "stateMutability": "nonpayable",
      "type": "function"
    },
    {
      "anonymous": false,
      "inputs": [
        {
          "indexed": true,
          "name": "burner",
          "type": "address"
        },
        {
          "indexed": false,
          "name": "value",
          "type": "uint256"
        }
      ],
      "name": "Burn",
      "type": "event"
    },
    {
      "anonymous": false,
      "inputs": [
        {
          "indexed": true,
          "name": "from",
          "type": "address"
        },
        {
          "indexed": true,
          "name": "to",
          "type": "address"
        },
        {
          "indexed": false,
          "name": "value",
          "type": "uint256"
        }
      ],
      "name": "Transfer",
      "type": "event"
    },
    {
      "constant": false,
      "inputs": [
        {
          "name": "_value",
          "type": "uint256"
        }
      ],
      "name": "burn",
      "outputs": [],
      "payable": false,
      "stateMutability": "nonpayable",
      "type": "function"
    }
  ],
  "bytecode": "0x6060604052341561000f57600080fd5b6103398061001e6000396000f3006060604052600436106100615763ffffffff7c010000000000000000000000000000000000000000000000000000000060003504166318160ddd811461006657806342966c681461008b57806370a08231146100a3578063a9059cbb146100c2575b600080fd5b341561007157600080fd5b6100796100f8565b60405190815260200160405180910390f35b341561009657600080fd5b6100a16004356100fe565b005b34156100ae57600080fd5b610079600160a060020a03600435166101b8565b34156100cd57600080fd5b6100e4600160a060020a03600435166024356101d3565b604051901515815260200160405180910390f35b60015490565b600160a060020a03331660009081526020819052604081205482111561012357600080fd5b5033600160a060020a03811660009081526020819052604090205461014890836102e5565b600160a060020a038216600090815260208190526040902055600154610174908363ffffffff6102e516565b600155600160a060020a0381167fcc16f5dbb4873280815c1ee09dbd06736cffcc184412cf7a71a0fdb75d397ca58360405190815260200160405180910390a25050565b600160a060020a031660009081526020819052604090205490565b6000600160a060020a03831615156101ea57600080fd5b600160a060020a03331660009081526020819052604090205482111561020f57600080fd5b600160a060020a033316600090815260208190526040902054610238908363ffffffff6102e516565b600160a060020a03338116600090815260208190526040808220939093559085168152205461026d908363ffffffff6102f716565b60008085600160a060020a0316600160a060020a031681526020019081526020016000208190555082600160a060020a031633600160a060020a03167fddf252ad1be2c89b69c2b068fc378daa952ba7f163c4a11628f55a4df523b3ef8460405190815260200160405180910390a350600192915050565b6000828211156102f157fe5b50900390565b60008282018381101561030657fe5b93925050505600a165627a7a72305820b68a9ea252d609487b77cb820c77e19d5a3fa60bffd10c35f9b1a7441be552e00029",
  "source": "pragma solidity ^0.4.18;\n\nimport \"./BasicToken.sol\";\n\n\n/**\n * @title Burnable Token\n * @dev Token that can be irreversibly burned (destroyed).\n */\ncontract BurnableToken is BasicToken {\n\n  event Burn(address indexed burner, uint256 value);\n\n  /**\n   * @dev Burns a specific amount of tokens.\n   * @param _value The amount of token to be burned.\n   */\n  function burn(uint256 _value) public {\n    require(_value <= balances[msg.sender]);\n    // no need to require value <= totalSupply, since that would imply the\n    // sender's balance is greater than the totalSupply, which *should* be an assertion failure\n\n    address burner = msg.sender;\n    balances[burner] = balances[burner].sub(_value);\n    totalSupply_ = totalSupply_.sub(_value);\n    Burn(burner, _value);\n  }\n}\n",
  "sourcePath": "zeppelin-solidity/contracts/token/ERC20/BurnableToken.sol",
  "compiler": {
    "name": "solc",
    "version": "0.4.19+commit.c4cbbb05.Emscripten.clang"
  },
  "schemaVersion": "1.0.1",
  "updatedAt": "2018-04-30T11:37:26.072Z"
}