{
  "contractName": "TokenVesting",
  "abi": [
    {
      "constant": true,
      "inputs": [],
      "name": "duration",
      "outputs": [
        {
          "name": "",
          "type": "uint256"
        }
      ],
      "payable": false,
      "stateMutability": "view",
      "type": "function"
    },
    {
      "constant": true,
      "inputs": [],
      "name": "cliff",
      "outputs": [
        {
          "name": "",
          "type": "uint256"
        }
      ],
      "payable": false,
      "stateMutability": "view",
      "type": "function"
    },
    {
      "constant": true,
      "inputs": [],
      "name": "beneficiary",
      "outputs": [
        {
          "name": "",
          "type": "address"
        }
      ],
      "payable": false,
      "stateMutability": "view",
      "type": "function"
    },
    {
      "constant": true,
      "inputs": [],
      "name": "revocable",
      "outputs": [
        {
          "name": "",
          "type": "bool"
        }
      ],
      "payable": false,
      "stateMutability": "view",
      "type": "function"
    },
    {
      "constant": true,
      "inputs": [],
      "name": "owner",
      "outputs": [
        {
          "name": "",
          "type": "address"
        }
      ],
      "payable": false,
      "stateMutability": "view",
      "type": "function"
    },
    {
      "constant": true,
      "inputs": [
        {
          "name": "",
          "type": "address"
        }
      ],
      "name": "released",
      "outputs": [
        {
          "name": "",
          "type": "uint256"
        }
      ],
      "payable": false,
      "stateMutability": "view",
      "type": "function"
    },
    {
      "constant": true,
      "inputs": [],
      "name": "start",
      "outputs": [
        {
          "name": "",
          "type": "uint256"
        }
      ],
      "payable": false,
      "stateMutability": "view",
      "type": "function"
    },
    {
      "constant": false,
      "inputs": [
        {
          "name": "newOwner",
          "type": "address"
        }
      ],
      "name": "transferOwnership",
      "outputs": [],
      "payable": false,
      "stateMutability": "nonpayable",
      "type": "function"
    },
    {
      "constant": true,
      "inputs": [
        {
          "name": "",
          "type": "address"
        }
      ],
      "name": "revoked",
      "outputs": [
        {
          "name": "",
          "type": "bool"
        }
      ],
      "payable": false,
      "stateMutability": "view",
      "type": "function"
    },
    {
      "inputs": [
        {
          "name": "_beneficiary",
          "type": "address"
        },
        {
          "name": "_start",
          "type": "uint256"
        },
        {
          "name": "_cliff",
          "type": "uint256"
        },
        {
          "name": "_duration",
          "type": "uint256"
        },
        {
          "name": "_revocable",
          "type": "bool"
        }
      ],
      "payable": false,
      "stateMutability": "nonpayable",
      "type": "constructor"
    },
    {
      "anonymous": false,
      "inputs": [
        {
          "indexed": false,
          "name": "amount",
          "type": "uint256"
        }
      ],
      "name": "Released",
      "type": "event"
    },
    {
      "anonymous": false,
      "inputs": [],
      "name": "Revoked",
      "type": "event"
    },
    {
      "anonymous": false,
      "inputs": [
        {
          "indexed": true,
          "name": "previousOwner",
          "type": "address"
        },
        {
          "indexed": true,
          "name": "newOwner",
          "type": "address"
        }
      ],
      "name": "OwnershipTransferred",
      "type": "event"
    },
    {
      "constant": false,
      "inputs": [
        {
          "name": "token",
          "type": "address"
        }
      ],
      "name": "release",
      "outputs": [],
      "payable": false,
      "stateMutability": "nonpayable",
      "type": "function"
    },
    {
      "constant": false,
      "inputs": [
        {
          "name": "token",
          "type": "address"
        }
      ],
      "name": "revoke",
      "outputs": [],
      "payable": false,
      "stateMutability": "nonpayable",
      "type": "function"
    },
    {
      "constant": true,
      "inputs": [
        {
          "name": "token",
          "type": "address"
        }
      ],
      "name": "releasableAmount",
      "outputs": [
        {
          "name": "",
          "type": "uint256"
        }
      ],
      "payable": false,
      "stateMutability": "view",
      "type": "function"
    },
    {
      "constant": true,
      "inputs": [
        {
          "name": "token",
          "type": "address"
        }
      ],
      "name": "vestedAmount",
      "outputs": [
        {
          "name": "",
          "type": "uint256"
        }
      ],
      "payable": false,
      "stateMutability": "view",
      "type": "function"
    }
  ],
  "bytecode": "0x6060604052341561000f57600080fd5b60405160a0806108c8833981016040528080519190602001805191906020018051919060200180519190602001805160008054600160a060020a03191633600160a060020a039081169190911790915590925086161515905061007157600080fd5b8183111561007e57600080fd5b60018054600160a060020a031916600160a060020a0387161790556005805460ff191682151517905560048290556100c384846401000000006100d281026106c41704565b600255505050600355506100e8565b6000828201838110156100e157fe5b9392505050565b6107d1806100f76000396000f3006060604052600436106100ab5763ffffffff60e060020a6000350416630fb5a6b481146100b057806313d033c0146100d55780631726cbc8146100e85780631916558714610107578063384711cc1461012857806338af3eed1461014757806374a8f10314610176578063872a7810146101955780638da5cb5b146101bc5780639852595c146101cf578063be9a6555146101ee578063f2fde38b14610201578063fa01dc0614610220575b600080fd5b34156100bb57600080fd5b6100c361023f565b60405190815260200160405180910390f35b34156100e057600080fd5b6100c3610245565b34156100f357600080fd5b6100c3600160a060020a036004351661024b565b341561011257600080fd5b610126600160a060020a0360043516610283565b005b341561013357600080fd5b6100c3600160a060020a036004351661032f565b341561015257600080fd5b61015a610470565b604051600160a060020a03909116815260200160405180910390f35b341561018157600080fd5b610126600160a060020a036004351661047f565b34156101a057600080fd5b6101a86105d2565b604051901515815260200160405180910390f35b34156101c757600080fd5b61015a6105db565b34156101da57600080fd5b6100c3600160a060020a03600435166105ea565b34156101f957600080fd5b6100c36105fc565b341561020c57600080fd5b610126600160a060020a0360043516610602565b341561022b57600080fd5b6101a8600160a060020a036004351661069d565b60045481565b60025481565b600160a060020a03811660009081526006602052604081205461027d906102718461032f565b9063ffffffff6106b216565b92915050565b600061028e8261024b565b90506000811161029d57600080fd5b600160a060020a0382166000908152600660205260409020546102c6908263ffffffff6106c416565b600160a060020a038084166000818152600660205260409020929092556001546102f89291168363ffffffff6106de16565b7ffb81f9b30d73d830c3544b34d827c08142579ee75710b490bab0b3995468c5658160405190815260200160405180910390a15050565b600080600083600160a060020a03166370a082313060006040516020015260405160e060020a63ffffffff8416028152600160a060020a039091166004820152602401602060405180830381600087803b151561038b57600080fd5b6102c65a03f1151561039c57600080fd5b5050506040518051600160a060020a0386166000908152600660205260409020549093506103d29150839063ffffffff6106c416565b90506002544210156103e75760009250610469565b6004546003546103fc9163ffffffff6106c416565b421015806104225750600160a060020a03841660009081526007602052604090205460ff165b1561042f57809250610469565b61046660045461045a61044d600354426106b290919063ffffffff16565b849063ffffffff61076316565b9063ffffffff61078e16565b92505b5050919050565b600154600160a060020a031681565b600080548190819033600160a060020a0390811691161461049f57600080fd5b60055460ff1615156104b057600080fd5b600160a060020a03841660009081526007602052604090205460ff16156104d657600080fd5b83600160a060020a03166370a082313060006040516020015260405160e060020a63ffffffff8416028152600160a060020a039091166004820152602401602060405180830381600087803b151561052d57600080fd5b6102c65a03f1151561053e57600080fd5b5050506040518051905092506105538461024b565b9150610565838363ffffffff6106b216565b600160a060020a038086166000818152600760205260408120805460ff19166001179055549293506105a0929091168363ffffffff6106de16565b7f44825a4b2df8acb19ce4e1afba9aa850c8b65cdb7942e2078f27d0b0960efee660405160405180910390a150505050565b60055460ff1681565b600054600160a060020a031681565b60066020526000908152604090205481565b60035481565b60005433600160a060020a0390811691161461061d57600080fd5b600160a060020a038116151561063257600080fd5b600054600160a060020a0380831691167f8be0079c531659141344cd1fd0a4f28419497f9722a3daafe3b4186f6b6457e060405160405180910390a36000805473ffffffffffffffffffffffffffffffffffffffff1916600160a060020a0392909216919091179055565b60076020526000908152604090205460ff1681565b6000828211156106be57fe5b50900390565b6000828201838110156106d357fe5b8091505b5092915050565b82600160a060020a031663a9059cbb838360006040516020015260405160e060020a63ffffffff8516028152600160a060020a0390921660048301526024820152604401602060405180830381600087803b151561073b57600080fd5b6102c65a03f1151561074c57600080fd5b50505060405180519050151561075e57fe5b505050565b60008083151561077657600091506106d7565b5082820282848281151561078657fe5b04146106d357fe5b600080828481151561079c57fe5b049493505050505600a165627a7a72305820d80d05cde61dcac67cef2bd7684cec9915f465aae4b1d6c28086339f85176af80029",
  "source": "pragma solidity ^0.4.18;\n\nimport \"./ERC20Basic.sol\";\nimport \"./SafeERC20.sol\";\nimport \"../../ownership/Ownable.sol\";\nimport \"../../math/SafeMath.sol\";\n\n\n/**\n * @title TokenVesting\n * @dev A token holder contract that can release its token balance gradually like a\n * typical vesting scheme, with a cliff and vesting period. Optionally revocable by the\n * owner.\n */\ncontract TokenVesting is Ownable {\n  using SafeMath for uint256;\n  using SafeERC20 for ERC20Basic;\n\n  event Released(uint256 amount);\n  event Revoked();\n\n  // beneficiary of tokens after they are released\n  address public beneficiary;\n\n  uint256 public cliff;\n  uint256 public start;\n  uint256 public duration;\n\n  bool public revocable;\n\n  mapping (address => uint256) public released;\n  mapping (address => bool) public revoked;\n\n  /**\n   * @dev Creates a vesting contract that vests its balance of any ERC20 token to the\n   * _beneficiary, gradually in a linear fashion until _start + _duration. By then all\n   * of the balance will have vested.\n   * @param _beneficiary address of the beneficiary to whom vested tokens are transferred\n   * @param _cliff duration in seconds of the cliff in which tokens will begin to vest\n   * @param _duration duration in seconds of the period in which the tokens will vest\n   * @param _revocable whether the vesting is revocable or not\n   */\n  function TokenVesting(address _beneficiary, uint256 _start, uint256 _cliff, uint256 _duration, bool _revocable) public {\n    require(_beneficiary != address(0));\n    require(_cliff <= _duration);\n\n    beneficiary = _beneficiary;\n    revocable = _revocable;\n    duration = _duration;\n    cliff = _start.add(_cliff);\n    start = _start;\n  }\n\n  /**\n   * @notice Transfers vested tokens to beneficiary.\n   * @param token ERC20 token which is being vested\n   */\n  function release(ERC20Basic token) public {\n    uint256 unreleased = releasableAmount(token);\n\n    require(unreleased > 0);\n\n    released[token] = released[token].add(unreleased);\n\n    token.safeTransfer(beneficiary, unreleased);\n\n    Released(unreleased);\n  }\n\n  /**\n   * @notice Allows the owner to revoke the vesting. Tokens already vested\n   * remain in the contract, the rest are returned to the owner.\n   * @param token ERC20 token which is being vested\n   */\n  function revoke(ERC20Basic token) public onlyOwner {\n    require(revocable);\n    require(!revoked[token]);\n\n    uint256 balance = token.balanceOf(this);\n\n    uint256 unreleased = releasableAmount(token);\n    uint256 refund = balance.sub(unreleased);\n\n    revoked[token] = true;\n\n    token.safeTransfer(owner, refund);\n\n    Revoked();\n  }\n\n  /**\n   * @dev Calculates the amount that has already vested but hasn't been released yet.\n   * @param token ERC20 token which is being vested\n   */\n  function releasableAmount(ERC20Basic token) public view returns (uint256) {\n    return vestedAmount(token).sub(released[token]);\n  }\n\n  /**\n   * @dev Calculates the amount that has already vested.\n   * @param token ERC20 token which is being vested\n   */\n  function vestedAmount(ERC20Basic token) public view returns (uint256) {\n    uint256 currentBalance = token.balanceOf(this);\n    uint256 totalBalance = currentBalance.add(released[token]);\n\n    if (now < cliff) {\n      return 0;\n    } else if (now >= start.add(duration) || revoked[token]) {\n      return totalBalance;\n    } else {\n      return totalBalance.mul(now.sub(start)).div(duration);\n    }\n  }\n}\n",
  "sourcePath": "zeppelin-solidity/contracts/token/ERC20/TokenVesting.sol",
  "compiler": {
    "name": "solc",
    "version": "0.4.19+commit.c4cbbb05.Emscripten.clang"
  },
  "schemaVersion": "1.0.1",
  "updatedAt": "2018-04-30T11:37:26.074Z"
}