{
  "contractName": "VervFluxCrowdsale",
  "abi": [
    {
      "constant": true,
      "inputs": [
        {
          "name": "",
          "type": "address"
        }
      ],
      "name": "firstDaySaleRecords",
      "outputs": [
        {
          "name": "",
          "type": "uint256"
        }
      ],
      "payable": false,
      "stateMutability": "view",
      "type": "function"
    },
    {
      "constant": true,
      "inputs": [],
      "name": "preSaleWeiRaised",
      "outputs": [
        {
          "name": "",
          "type": "uint256"
        }
      ],
      "payable": false,
      "stateMutability": "view",
      "type": "function"
    },
    {
      "constant": true,
      "inputs": [],
      "name": "PRESALE_LOCKUP_PERIOD",
      "outputs": [
        {
          "name": "",
          "type": "uint256"
        }
      ],
      "payable": false,
      "stateMutability": "view",
      "type": "function"
    },
    {
      "constant": true,
      "inputs": [],
      "name": "MAX_ALLOWED_FIRST_DAY_INVESTMENT",
      "outputs": [
        {
          "name": "",
          "type": "uint256"
        }
      ],
      "payable": false,
      "stateMutability": "view",
      "type": "function"
    },
    {
      "constant": true,
      "inputs": [],
      "name": "companyWallet",
      "outputs": [
        {
          "name": "",
          "type": "address"
        }
      ],
      "payable": false,
      "stateMutability": "view",
      "type": "function"
    },
    {
      "constant": true,
      "inputs": [],
      "name": "rate",
      "outputs": [
        {
          "name": "",
          "type": "uint256"
        }
      ],
      "payable": false,
      "stateMutability": "view",
      "type": "function"
    },
    {
      "constant": true,
      "inputs": [],
      "name": "endTime",
      "outputs": [
        {
          "name": "",
          "type": "uint256"
        }
      ],
      "payable": false,
      "stateMutability": "view",
      "type": "function"
    },
    {
      "constant": true,
      "inputs": [],
      "name": "cap",
      "outputs": [
        {
          "name": "",
          "type": "uint256"
        }
      ],
      "payable": false,
      "stateMutability": "view",
      "type": "function"
    },
    {
      "constant": true,
      "inputs": [
        {
          "name": "",
          "type": "address"
        }
      ],
      "name": "vestingContracts",
      "outputs": [
        {
          "name": "",
          "type": "address"
        }
      ],
      "payable": false,
      "stateMutability": "view",
      "type": "function"
    },
    {
      "constant": false,
      "inputs": [],
      "name": "unpause",
      "outputs": [],
      "payable": false,
      "stateMutability": "nonpayable",
      "type": "function"
    },
    {
      "constant": true,
      "inputs": [],
      "name": "weiRaised",
      "outputs": [
        {
          "name": "",
          "type": "uint256"
        }
      ],
      "payable": false,
      "stateMutability": "view",
      "type": "function"
    },
    {
      "constant": true,
      "inputs": [],
      "name": "MAX_PRESALE_RATE",
      "outputs": [
        {
          "name": "",
          "type": "uint256"
        }
      ],
      "payable": false,
      "stateMutability": "view",
      "type": "function"
    },
    {
      "constant": true,
      "inputs": [],
      "name": "wallet",
      "outputs": [
        {
          "name": "",
          "type": "address"
        }
      ],
      "payable": false,
      "stateMutability": "view",
      "type": "function"
    },
    {
      "constant": true,
      "inputs": [],
      "name": "paused",
      "outputs": [
        {
          "name": "",
          "type": "bool"
        }
      ],
      "payable": false,
      "stateMutability": "view",
      "type": "function"
    },
    {
      "constant": true,
      "inputs": [],
      "name": "startTime",
      "outputs": [
        {
          "name": "",
          "type": "uint256"
        }
      ],
      "payable": false,
      "stateMutability": "view",
      "type": "function"
    },
    {
      "constant": false,
      "inputs": [],
      "name": "pause",
      "outputs": [],
      "payable": false,
      "stateMutability": "nonpayable",
      "type": "function"
    },
    {
      "constant": true,
      "inputs": [
        {
          "name": "",
          "type": "uint8"
        }
      ],
      "name": "vestingDurations",
      "outputs": [
        {
          "name": "",
          "type": "uint256"
        }
      ],
      "payable": false,
      "stateMutability": "view",
      "type": "function"
    },
    {
      "constant": true,
      "inputs": [],
      "name": "isFinalized",
      "outputs": [
        {
          "name": "",
          "type": "bool"
        }
      ],
      "payable": false,
      "stateMutability": "view",
      "type": "function"
    },
    {
      "constant": true,
      "inputs": [],
      "name": "owner",
      "outputs": [
        {
          "name": "",
          "type": "address"
        }
      ],
      "payable": false,
      "stateMutability": "view",
      "type": "function"
    },
    {
      "constant": true,
      "inputs": [],
      "name": "MAX_WHITELIST_TRANSACTION_GAS_AMOUNT",
      "outputs": [
        {
          "name": "",
          "type": "uint256"
        }
      ],
      "payable": false,
      "stateMutability": "view",
      "type": "function"
    },
    {
      "constant": true,
      "inputs": [
        {
          "name": "",
          "type": "address"
        }
      ],
      "name": "whitelist",
      "outputs": [
        {
          "name": "",
          "type": "bool"
        }
      ],
      "payable": false,
      "stateMutability": "view",
      "type": "function"
    },
    {
      "constant": true,
      "inputs": [],
      "name": "pauseManager",
      "outputs": [
        {
          "name": "",
          "type": "address"
        }
      ],
      "payable": false,
      "stateMutability": "view",
      "type": "function"
    },
    {
      "constant": true,
      "inputs": [],
      "name": "stage",
      "outputs": [
        {
          "name": "",
          "type": "uint8"
        }
      ],
      "payable": false,
      "stateMutability": "view",
      "type": "function"
    },
    {
      "constant": true,
      "inputs": [],
      "name": "COMPANY_RETAIN_PERCENT",
      "outputs": [
        {
          "name": "",
          "type": "uint8"
        }
      ],
      "payable": false,
      "stateMutability": "view",
      "type": "function"
    },
    {
      "constant": true,
      "inputs": [],
      "name": "MAX_GAS_PRICE",
      "outputs": [
        {
          "name": "",
          "type": "uint256"
        }
      ],
      "payable": false,
      "stateMutability": "view",
      "type": "function"
    },
    {
      "constant": true,
      "inputs": [],
      "name": "hasEnded",
      "outputs": [
        {
          "name": "",
          "type": "bool"
        }
      ],
      "payable": false,
      "stateMutability": "view",
      "type": "function"
    },
    {
      "constant": true,
      "inputs": [],
      "name": "INVESTOR_MARGIN",
      "outputs": [
        {
          "name": "",
          "type": "uint8"
        }
      ],
      "payable": false,
      "stateMutability": "view",
      "type": "function"
    },
    {
      "constant": false,
      "inputs": [
        {
          "name": "newOwner",
          "type": "address"
        }
      ],
      "name": "transferOwnership",
      "outputs": [],
      "payable": false,
      "stateMutability": "nonpayable",
      "type": "function"
    },
    {
      "constant": true,
      "inputs": [],
      "name": "token",
      "outputs": [
        {
          "name": "",
          "type": "address"
        }
      ],
      "payable": false,
      "stateMutability": "view",
      "type": "function"
    },
    {
      "inputs": [
        {
          "name": "_owner",
          "type": "address"
        },
        {
          "name": "_companyWallet",
          "type": "address"
        },
        {
          "name": "_wallet",
          "type": "address"
        },
        {
          "name": "_cap",
          "type": "uint256"
        },
        {
          "name": "_startTime",
          "type": "uint256"
        },
        {
          "name": "_endTime",
          "type": "uint256"
        }
      ],
      "payable": false,
      "stateMutability": "nonpayable",
      "type": "constructor"
    },
    {
      "payable": true,
      "stateMutability": "payable",
      "type": "fallback"
    },
    {
      "anonymous": false,
      "inputs": [],
      "name": "Finalized",
      "type": "event"
    },
    {
      "anonymous": false,
      "inputs": [
        {
          "indexed": true,
          "name": "investor",
          "type": "address"
        }
      ],
      "name": "WhitelistParticipant",
      "type": "event"
    },
    {
      "anonymous": false,
      "inputs": [
        {
          "indexed": true,
          "name": "investor",
          "type": "address"
        }
      ],
      "name": "UnwhitelistParticipant",
      "type": "event"
    },
    {
      "anonymous": false,
      "inputs": [
        {
          "indexed": false,
          "name": "cap",
          "type": "uint256"
        },
        {
          "indexed": false,
          "name": "newCap",
          "type": "uint256"
        }
      ],
      "name": "CapUpdated",
      "type": "event"
    },
    {
      "anonymous": false,
      "inputs": [
        {
          "indexed": false,
          "name": "stage",
          "type": "uint8"
        },
        {
          "indexed": false,
          "name": "newStage",
          "type": "uint8"
        }
      ],
      "name": "StageUpdated",
      "type": "event"
    },
    {
      "anonymous": false,
      "inputs": [
        {
          "indexed": true,
          "name": "previousManager",
          "type": "address"
        },
        {
          "indexed": true,
          "name": "newManager",
          "type": "address"
        }
      ],
      "name": "PauseManagementTransferred",
      "type": "event"
    },
    {
      "anonymous": false,
      "inputs": [],
      "name": "Pause",
      "type": "event"
    },
    {
      "anonymous": false,
      "inputs": [],
      "name": "Unpause",
      "type": "event"
    },
    {
      "anonymous": false,
      "inputs": [
        {
          "indexed": true,
          "name": "previousOwner",
          "type": "address"
        },
        {
          "indexed": true,
          "name": "newOwner",
          "type": "address"
        }
      ],
      "name": "OwnershipTransferred",
      "type": "event"
    },
    {
      "anonymous": false,
      "inputs": [
        {
          "indexed": true,
          "name": "purchaser",
          "type": "address"
        },
        {
          "indexed": true,
          "name": "beneficiary",
          "type": "address"
        },
        {
          "indexed": false,
          "name": "value",
          "type": "uint256"
        },
        {
          "indexed": false,
          "name": "amount",
          "type": "uint256"
        }
      ],
      "name": "TokenPurchase",
      "type": "event"
    },
    {
      "constant": true,
      "inputs": [
        {
          "name": "investor",
          "type": "address"
        }
      ],
      "name": "isParticipantWhitelisted",
      "outputs": [
        {
          "name": "",
          "type": "bool"
        }
      ],
      "payable": false,
      "stateMutability": "view",
      "type": "function"
    },
    {
      "constant": false,
      "inputs": [
        {
          "name": "beneficiary",
          "type": "address"
        }
      ],
      "name": "buyTokens",
      "outputs": [],
      "payable": true,
      "stateMutability": "payable",
      "type": "function"
    },
    {
      "constant": false,
      "inputs": [],
      "name": "finalize",
      "outputs": [],
      "payable": false,
      "stateMutability": "nonpayable",
      "type": "function"
    },
    {
      "constant": true,
      "inputs": [
        {
          "name": "beneficiary",
          "type": "address"
        }
      ],
      "name": "vestingContract",
      "outputs": [
        {
          "name": "",
          "type": "address"
        }
      ],
      "payable": false,
      "stateMutability": "view",
      "type": "function"
    },
    {
      "constant": false,
      "inputs": [
        {
          "name": "newManager",
          "type": "address"
        }
      ],
      "name": "transferPauseManagement",
      "outputs": [],
      "payable": false,
      "stateMutability": "nonpayable",
      "type": "function"
    },
    {
      "constant": false,
      "inputs": [
        {
          "name": "newRate",
          "type": "uint256"
        }
      ],
      "name": "updateRate",
      "outputs": [],
      "payable": false,
      "stateMutability": "nonpayable",
      "type": "function"
    },
    {
      "constant": false,
      "inputs": [
        {
          "name": "newStartTime",
          "type": "uint256"
        }
      ],
      "name": "updateStartTime",
      "outputs": [],
      "payable": false,
      "stateMutability": "nonpayable",
      "type": "function"
    },
    {
      "constant": false,
      "inputs": [
        {
          "name": "newEndTime",
          "type": "uint256"
        }
      ],
      "name": "updateEndTime",
      "outputs": [],
      "payable": false,
      "stateMutability": "nonpayable",
      "type": "function"
    },
    {
      "constant": false,
      "inputs": [
        {
          "name": "newCap",
          "type": "uint256"
        }
      ],
      "name": "updateCap",
      "outputs": [],
      "payable": false,
      "stateMutability": "nonpayable",
      "type": "function"
    },
    {
      "constant": false,
      "inputs": [
        {
          "name": "investors",
          "type": "address[]"
        },
        {
          "name": "status",
          "type": "bool"
        }
      ],
      "name": "changeWhitelistParticipantsStatus",
      "outputs": [],
      "payable": false,
      "stateMutability": "nonpayable",
      "type": "function"
    },
    {
      "constant": false,
      "inputs": [
        {
          "name": "beneficiary",
          "type": "address"
        },
        {
          "name": "tokensAmount",
          "type": "uint256"
        },
        {
          "name": "vestingDuration",
          "type": "uint8"
        }
      ],
      "name": "distributePreBuyersLkdRewards",
      "outputs": [],
      "payable": false,
      "stateMutability": "nonpayable",
      "type": "function"
    }
  ],
  "bytecode": "0x60606040526007805460a060020a60ff0219169055600b805460ff60a860020a60ff02011916905534156200003357600080fd5b60405160c0806200401b833981016040528080519190602001805191906020018051919060200180519190602001805191906020018051915083905082826107d087428410156200008357600080fd5b838310156200009157600080fd5b600082116200009f57600080fd5b600160a060020a0381161515620000b557600080fd5b620000cd640100000000620017586200027182021704565b60008054600160a060020a0319908116600160a060020a039384161782556001969096556002949094556004929092556003805490941691161790915581116200011657600080fd5b60065560078054600160a060020a03191633600160a060020a031617905581816203f480820181146200014857600080fd5b600160a060020a03881615156200015e57600080fd5b600160a060020a03871615156200017457600080fd5b505060078054600160a060020a03978816600160a060020a03199182168117909255600b8054979098166101000261010060a860020a0319909716969096179096555050600e80549093169093179091555050600860205262784ce07f5eff886ea0ce6ca488a3d6e336d6c0f75f46d19b42c06ce5ee98e42c96d256c75562f099c07fad67d757c34507f157cacfa2e3153e9f260a2244f30428821be7be64587ac55f55630168e6a07f6add646517a5b0f6793cd5891b7937d28a5b2981a5d88ebc7cd776088fea90415560036000526301e133807f625b35f5e76f098dd7c3a05b10e2e5e78a4a01228d60c3b143426cdf36d2645555620002aa565b60006200027d62000299565b604051809103906000f08015156200029457600080fd5b905090565b604051610e6e80620031ad83390190565b612ef380620002ba6000396000f300606060405260043610620001fd5763ffffffff60e060020a60003504166304468f9281146200020a57806304f65590146200023e57806306bcf02f146200025457806307a72d8d146200026d57806315a7ac5314620002835780631ec32d1514620002995780631fff8bb314620002cb57806328a201d214620003015780632c4e722e14620003235780633197cbb61462000339578063355274ea146200034f5780633791587414620003655780633f4ba83a14620003875780634042b66f146200039d5780634bb278f314620003b35780634fc2ce8914620003c9578063521eb27314620003df5780635c975abb14620003f557806369ea1771146200040b5780636ab3846b146200042457806378e97925146200043d5780638456cb59146200045357806389cc2c1b14620004695780638d4e408314620004855780638da5cb5b146200049b57806396c5200a14620004b157806398757cb114620004d35780639b19251a14620004e9578063a7d68896146200050b578063abd13afe1462000524578063c040e6b8146200053a578063d7c89d1b1462000575578063e3bbb4f114620005a1578063eaa070ca14620005b7578063ec8ac4d8146200060d578063ecb70fb71462000623578063f2afd1df1462000639578063f2fde38b146200064f578063f976d3cd1462000671578063fc0c546a146200069c575b6200020833620006b2565b005b34156200021657600080fd5b6200022c600160a060020a03600435166200078c565b60405190815260200160405180910390f35b34156200024a57600080fd5b6200022c6200079e565b34156200026057600080fd5b62000208600435620007a4565b34156200027957600080fd5b6200022c62000824565b34156200028f57600080fd5b6200022c6200082b565b3415620002a557600080fd5b620002af62000837565b604051600160a060020a03909116815260200160405180910390f35b3415620002d757600080fd5b620002ed600160a060020a03600435166200084b565b604051901515815260200160405180910390f35b34156200030d57600080fd5b62000208600160a060020a036004351662000869565b34156200032f57600080fd5b6200022c620008fe565b34156200034557600080fd5b6200022c62000904565b34156200035b57600080fd5b6200022c6200090a565b34156200037157600080fd5b620002af600160a060020a036004351662000910565b34156200039357600080fd5b620002086200092b565b3415620003a957600080fd5b6200022c620009ac565b3415620003bf57600080fd5b62000208620009b2565b3415620003d557600080fd5b6200022c62000c12565b3415620003eb57600080fd5b620002af62000c18565b34156200040157600080fd5b620002ed62000c27565b34156200041757600080fd5b6200020860043562000c37565b34156200043057600080fd5b6200020860043562000c9b565b34156200044957600080fd5b6200022c62000d0e565b34156200045f57600080fd5b6200020862000d14565b34156200047557600080fd5b6200022c60ff6004351662000d9a565b34156200049157600080fd5b620002ed62000dac565b3415620004a757600080fd5b620002af62000dce565b3415620004bd57600080fd5b620002af600160a060020a036004351662000ddd565b3415620004df57600080fd5b6200022c62000dfb565b3415620004f557600080fd5b620002ed600160a060020a036004351662000e02565b34156200051757600080fd5b6200020860043562000e17565b34156200053057600080fd5b620002af62000ec6565b34156200054657600080fd5b6200055062000ed5565b604051808260028111156200056157fe5b60ff16815260200191505060405180910390f35b34156200058157600080fd5b6200058b62000ede565b60405160ff909116815260200160405180910390f35b3415620005ad57600080fd5b6200022c62000ee3565b3415620005c357600080fd5b62000208600460248135818101908301358060208181020160405190810160405280939291908181526020018383602002808284375094965050505091351515915062000eec9050565b62000208600160a060020a0360043516620006b2565b34156200062f57600080fd5b620002ed6200104f565b34156200064557600080fd5b6200058b62001073565b34156200065b57600080fd5b62000208600160a060020a036004351662001078565b34156200067d57600080fd5b62000208600160a060020a036004351660243560ff6044351662001115565b3415620006a857600080fd5b620002af6200135c565b60075460a060020a900460ff1615620006ca57600080fd5b6404a817c8003a1115620006dd57600080fd5b620006e76200136b565b600180600b5460ff166002811115620006fc57fe5b146200070757600080fd5b6200071282620013d7565b15156200071e57600080fd5b62000729826200143d565b60015462015180014210156200077e57600160a060020a0382166000908152600c602052604090205462000764903463ffffffff6200156d16565b600160a060020a0383166000908152600c60205260409020555b50620007896200136b565b50565b600c6020526000908152604090205481565b600d5481565b60075433600160a060020a03908116911614620007c057600080fd5b620007ca6200136b565b600080600b5460ff166002811115620007df57fe5b14620007ea57600080fd5b60008211620007f857600080fd5b4282116200080557600080fd5b60025482106200081457600080fd5b506001819055620007896200136b565b62784ce081565b678ac7230489e8000081565b600b546101009004600160a060020a031681565b600160a060020a031660009081526009602052604090205460ff1690565b600e5460009033600160a060020a039081169116146200088857600080fd5b600160a060020a03821615156200089e57600080fd5b50600e8054600160a060020a0383811673ffffffffffffffffffffffffffffffffffffffff19831681179093551690817f2cbaaf2891db78b5e628fe1c12aa8f0a5abee3bf1c2bcf18188380eccb4f223760405160405180910390a35050565b60045481565b60025481565b60065481565b600a60205260009081526040902054600160a060020a031681565b60075433600160a060020a039081169116146200094757600080fd5b60075460a060020a900460ff1615156200096057600080fd5b6007805474ff0000000000000000000000000000000000000000191690557f7805862f689e2f13df9f062ff482ad3ad112aca9e0847911ed832e158c525b3360405160405180910390a1565b60055481565b6007546000908190819060a060020a900460ff1615620009d157600080fd5b620009db6200136b565b600280600b5460ff166002811115620009f057fe5b14620009fb57600080fd5b600b547501000000000000000000000000000000000000000000900460ff161562000a2557600080fd5b600b805475ff0000000000000000000000000000000000000000001916750100000000000000000000000000000000000000000017905560008054600160a060020a0316906318160ddd90604051602001526040518163ffffffff1660e060020a028152600401602060405180830381600087803b151562000aa657600080fd5b6102c65a03f1151562000ab857600080fd5b50505060405180519450506000841162000ad157600080fd5b60008054600b546064604288048181029750610d4802049450600160a060020a03918216926340c10f19926101009092049091169085906040516020015260405160e060020a63ffffffff8516028152600160a060020a0390921660048301526024820152604401602060405180830381600087803b151562000b5357600080fd5b6102c65a03f1151562000b6557600080fd5b5050506040518051505060008054600160a060020a031690637d64bcb490604051602001526040518163ffffffff1660e060020a028152600401602060405180830381600087803b151562000bb957600080fd5b6102c65a03f1151562000bcb57600080fd5b50505060405180519050507f6823b073d48d6e3a7d385eeb601452d680e74bb46afe3255a7d778f3a9b1768160405160405180910390a15062000c0d6200136b565b505050565b611f4081565b600354600160a060020a031681565b60075460a060020a900460ff1681565b60075433600160a060020a0390811691161462000c5357600080fd5b62000c5d6200136b565b600080600b5460ff16600281111562000c7257fe5b1462000c7d57600080fd5b6000821162000c8b57600080fd5b506004819055620007896200136b565b60075433600160a060020a0390811691161462000cb757600080fd5b62000cc16200136b565b600080600b5460ff16600281111562000cd657fe5b1462000ce157600080fd5b6000821162000cef57600080fd5b600154821162000cfe57600080fd5b506002819055620007896200136b565b60015481565b60075433600160a060020a0390811691161462000d3057600080fd5b60075460a060020a900460ff161562000d4857600080fd5b6007805474ff0000000000000000000000000000000000000000191660a060020a1790557f6985a02210a168e66602d3235cb6db0e70f92b3ba4d376a33c0f3d9434bff62560405160405180910390a1565b60086020526000908152604090205481565b600b547501000000000000000000000000000000000000000000900460ff1681565b600754600160a060020a031681565b600160a060020a039081166000908152600a60205260409020541690565b623d090081565b60096020526000908152604090205460ff1681565b60075460009033600160a060020a0390811691161462000e3657600080fd5b62000e406200136b565b600b54600290819060ff168181111562000e5657fe5b60ff161062000e6457600080fd5b600554831162000e7357600080fd5b600680549084905591507fd3636070a5893c88088ab04180c3c0fe9be316dbea031e03a4aadbd688bf553a828460405191825260208201526040908101905180910390a15062000ec26200136b565b5050565b600e54600160a060020a031681565b600b5460ff1681565b602281565b6404a817c80081565b60075460009060a060020a900460ff161562000f0757600080fd5b60075433600160a060020a0390811691161462000f2357600080fd5b623d09005a111562000f3457600080fd5b62000f3e6200136b565b600080600b5460ff16600281111562000f5357fe5b1462000f5e57600080fd5b600084511162000f6d57600080fd5b600091505b8351821015620010445783828151811062000f8957fe5b90602001906020020151600160a060020a0316151562000fa857600080fd5b826009600086858151811062000fba57fe5b90602001906020020151600160a060020a031681526020810191909152604001600020805460ff191691151591909117905583828151811062000ff957fe5b90602001906020020151600160a060020a03167f630babaca8b4df5e468513e75763c27d307419fb12a74b282651390b7a2ab5fb60405160405180910390a260019091019062000f72565b5062000c0d6200136b565b60065460055460009190101580806200106d57506200106d62001584565b91505090565b604281565b60075433600160a060020a039081169116146200109457600080fd5b600160a060020a0381161515620010aa57600080fd5b600754600160a060020a0380831691167f8be0079c531659141344cd1fd0a4f28419497f9722a3daafe3b4186f6b6457e060405160405180910390a36007805473ffffffffffffffffffffffffffffffffffffffff1916600160a060020a0392909216919091179055565b60075460009060a060020a900460ff16156200113057600080fd5b60075433600160a060020a039081169116146200114c57600080fd5b620011566200136b565b600080600b5460ff1660028111156200116b57fe5b146200117657600080fd5b600160a060020a03851615156200118c57600080fd5b600084116200119a57600080fd5b60086000846003811115620011ab57fe5b60ff168152602081019190915260400160009081205492508211620011cf57600080fd5b600160a060020a038581166000908152600a60205260409020541615156200128c578462784ce06002540160008460006200120962001747565b600160a060020a03909516855260208501939093526040808501929092526060840152901515608083015260a09091019051809103906000f08015156200124f57600080fd5b600160a060020a038681166000908152600a60205260409020805473ffffffffffffffffffffffffffffffffffffffff1916929091169190911790555b60008054600160a060020a038781168352600a602052604080842054928216936340c10f1993909216918891516020015260405160e060020a63ffffffff8516028152600160a060020a0390921660048301526024820152604401602060405180830381600087803b15156200130157600080fd5b6102c65a03f115156200131357600080fd5b5050506040518051505060045462001348906200133890869063ffffffff6200158c16565b600d549063ffffffff6200156d16565b600d5550620013566200136b565b50505050565b600054600160a060020a031681565b6000600b5460ff1660028111156200137f57fe5b1480156200138e575060015442115b156200139e576200139e620015a4565b6001600b5460ff166002811115620013b257fe5b148015620013c55750620013c56200104f565b15620013d557620013d5620015a4565b565b6000806000620013e7846200084b565b91506000905060015462015180014210156200142657818015620014115750620014118462001632565b915050678ac7230489e800003411156200142a565b5060015b818015620014355750805b949350505050565b600080600160a060020a03831615156200145657600080fd5b620014606200165c565b15156200146c57600080fd5b3491506200147a8262001690565b60055490915062001492908363ffffffff6200156d16565b60055560008054600160a060020a0316906340c10f1990859084906040516020015260405160e060020a63ffffffff8516028152600160a060020a0390921660048301526024820152604401602060405180830381600087803b1515620014f857600080fd5b6102c65a03f115156200150a57600080fd5b505050604051805190505082600160a060020a031633600160a060020a03167f623b3804fa71d67900d064613da8f94b9617215ee90799290593e1745087ad18848460405191825260208201526040908101905180910390a362000c0d620016e0565b6000828201838110156200157d57fe5b9392505050565b600254421190565b60008082848115156200159b57fe5b04949350505050565b600b54600090819060ff166002811115620015bb57fe5b9150506001810160ff81166002811115620015d257fe5b600b805460ff19166001836002811115620015e957fe5b02179055507f330ab8785be1f7b931907b715344056074b3e28e8c338d4376f81b79f112fbe2828260405160ff9283168152911660208201526040908101905180910390a15050565b600160a060020a03166000908152600c6020526040902054678ac7230489e8000034909101111590565b60008060065462001679346005546200156d90919063ffffffff16565b111590508080156200106d57506200106d62001715565b600454600154600091906201518001421015620016b957506004546064600582020401620016d7565b6001546202a30001421015620016d757506004546103e86019820204015b91909102919050565b600354600160a060020a03163480156108fc0290604051600060405180830381858888f193505050501515620013d557600080fd5b600080600060015442101580156200172f57506002544211155b915050341515818015620017405750805b9250505090565b6040516108c8806200179283390190565b60006200176462001780565b604051809103906000f08015156200177b57600080fd5b905090565b604051610e6e806200205a8339019056006060604052341561000f57600080fd5b60405160a0806108c8833981016040528080519190602001805191906020018051919060200180519190602001805160008054600160a060020a03191633600160a060020a039081169190911790915590925086161515905061007157600080fd5b8183111561007e57600080fd5b60018054600160a060020a031916600160a060020a0387161790556005805460ff191682151517905560048290556100c384846401000000006100d281026106c41704565b600255505050600355506100e8565b6000828201838110156100e157fe5b9392505050565b6107d1806100f76000396000f3006060604052600436106100ab5763ffffffff60e060020a6000350416630fb5a6b481146100b057806313d033c0146100d55780631726cbc8146100e85780631916558714610107578063384711cc1461012857806338af3eed1461014757806374a8f10314610176578063872a7810146101955780638da5cb5b146101bc5780639852595c146101cf578063be9a6555146101ee578063f2fde38b14610201578063fa01dc0614610220575b600080fd5b34156100bb57600080fd5b6100c361023f565b60405190815260200160405180910390f35b34156100e057600080fd5b6100c3610245565b34156100f357600080fd5b6100c3600160a060020a036004351661024b565b341561011257600080fd5b610126600160a060020a0360043516610283565b005b341561013357600080fd5b6100c3600160a060020a036004351661032f565b341561015257600080fd5b61015a610470565b604051600160a060020a03909116815260200160405180910390f35b341561018157600080fd5b610126600160a060020a036004351661047f565b34156101a057600080fd5b6101a86105d2565b604051901515815260200160405180910390f35b34156101c757600080fd5b61015a6105db565b34156101da57600080fd5b6100c3600160a060020a03600435166105ea565b34156101f957600080fd5b6100c36105fc565b341561020c57600080fd5b610126600160a060020a0360043516610602565b341561022b57600080fd5b6101a8600160a060020a036004351661069d565b60045481565b60025481565b600160a060020a03811660009081526006602052604081205461027d906102718461032f565b9063ffffffff6106b216565b92915050565b600061028e8261024b565b90506000811161029d57600080fd5b600160a060020a0382166000908152600660205260409020546102c6908263ffffffff6106c416565b600160a060020a038084166000818152600660205260409020929092556001546102f89291168363ffffffff6106de16565b7ffb81f9b30d73d830c3544b34d827c08142579ee75710b490bab0b3995468c5658160405190815260200160405180910390a15050565b600080600083600160a060020a03166370a082313060006040516020015260405160e060020a63ffffffff8416028152600160a060020a039091166004820152602401602060405180830381600087803b151561038b57600080fd5b6102c65a03f1151561039c57600080fd5b5050506040518051600160a060020a0386166000908152600660205260409020549093506103d29150839063ffffffff6106c416565b90506002544210156103e75760009250610469565b6004546003546103fc9163ffffffff6106c416565b421015806104225750600160a060020a03841660009081526007602052604090205460ff165b1561042f57809250610469565b61046660045461045a61044d600354426106b290919063ffffffff16565b849063ffffffff61076316565b9063ffffffff61078e16565b92505b5050919050565b600154600160a060020a031681565b600080548190819033600160a060020a0390811691161461049f57600080fd5b60055460ff1615156104b057600080fd5b600160a060020a03841660009081526007602052604090205460ff16156104d657600080fd5b83600160a060020a03166370a082313060006040516020015260405160e060020a63ffffffff8416028152600160a060020a039091166004820152602401602060405180830381600087803b151561052d57600080fd5b6102c65a03f1151561053e57600080fd5b5050506040518051905092506105538461024b565b9150610565838363ffffffff6106b216565b600160a060020a038086166000818152600760205260408120805460ff19166001179055549293506105a0929091168363ffffffff6106de16565b7f44825a4b2df8acb19ce4e1afba9aa850c8b65cdb7942e2078f27d0b0960efee660405160405180910390a150505050565b60055460ff1681565b600054600160a060020a031681565b60066020526000908152604090205481565b60035481565b60005433600160a060020a0390811691161461061d57600080fd5b600160a060020a038116151561063257600080fd5b600054600160a060020a0380831691167f8be0079c531659141344cd1fd0a4f28419497f9722a3daafe3b4186f6b6457e060405160405180910390a36000805473ffffffffffffffffffffffffffffffffffffffff1916600160a060020a0392909216919091179055565b60076020526000908152604090205460ff1681565b6000828211156106be57fe5b50900390565b6000828201838110156106d357fe5b8091505b5092915050565b82600160a060020a031663a9059cbb838360006040516020015260405160e060020a63ffffffff8516028152600160a060020a0390921660048301526024820152604401602060405180830381600087803b151561073b57600080fd5b6102c65a03f1151561074c57600080fd5b50505060405180519050151561075e57fe5b505050565b60008083151561077657600091506106d7565b5082820282848281151561078657fe5b04146106d357fe5b600080828481151561079c57fe5b049493505050505600a165627a7a72305820d80d05cde61dcac67cef2bd7684cec9915f465aae4b1d6c28086339f85176af80029606060409081526003805460a060020a60ff02191690558051908101604052600981527f5665727620466c757800000000000000000000000000000000000000000000006020820152600490805161005b9291602001906100d3565b5060408051908101604052600481527f564c555800000000000000000000000000000000000000000000000000000000602082015260059080516100a39291602001906100d3565b506006805460ff1916601217905560038054600160a060020a033316600160a060020a031990911617905561016e565b828054600181600116156101000203166002900490600052602060002090601f016020900481019282601f1061011457805160ff1916838001178555610141565b82800160010185558215610141579182015b82811115610141578251825591602001919060010190610126565b5061014d929150610151565b5090565b61016b91905b8082111561014d5760008155600101610157565b90565b610cf18061017d6000396000f3006060604052600436106100f05763ffffffff7c010000000000000000000000000000000000000000000000000000000060003504166305d2035b81146100f557806306fdde031461011c578063095ea7b3146101a657806318160ddd146101c857806323b872dd146101ed578063313ce5671461021557806340c10f191461023e57806342966c6814610260578063661884631461027857806370a082311461029a5780637d64bcb4146102b95780638da5cb5b146102cc57806395d89b41146102fb578063a9059cbb1461030e578063d73dd62314610330578063dd62ed3e14610352578063f2fde38b14610377575b600080fd5b341561010057600080fd5b610108610396565b604051901515815260200160405180910390f35b341561012757600080fd5b61012f6103a6565b60405160208082528190810183818151815260200191508051906020019080838360005b8381101561016b578082015183820152602001610153565b50505050905090810190601f1680156101985780820380516001836020036101000a031916815260200191505b509250505060405180910390f35b34156101b157600080fd5b610108600160a060020a0360043516602435610444565b34156101d357600080fd5b6101db6104b0565b60405190815260200160405180910390f35b34156101f857600080fd5b610108600160a060020a03600435811690602435166044356104b6565b341561022057600080fd5b610228610636565b60405160ff909116815260200160405180910390f35b341561024957600080fd5b610108600160a060020a036004351660243561063f565b341561026b57600080fd5b61027660043561074d565b005b341561028357600080fd5b610108600160a060020a0360043516602435610807565b34156102a557600080fd5b6101db600160a060020a0360043516610901565b34156102c457600080fd5b61010861091c565b34156102d757600080fd5b6102df6109a7565b604051600160a060020a03909116815260200160405180910390f35b341561030657600080fd5b61012f6109b6565b341561031957600080fd5b610108600160a060020a0360043516602435610a21565b341561033b57600080fd5b610108600160a060020a0360043516602435610b33565b341561035d57600080fd5b6101db600160a060020a0360043581169060243516610bd7565b341561038257600080fd5b610276600160a060020a0360043516610c02565b60035460a060020a900460ff1681565b60048054600181600116156101000203166002900480601f01602080910402602001604051908101604052809291908181526020018280546001816001161561010002031660029004801561043c5780601f106104115761010080835404028352916020019161043c565b820191906000526020600020905b81548152906001019060200180831161041f57829003601f168201915b505050505081565b600160a060020a03338116600081815260026020908152604080832094871680845294909152808220859055909291907f8c5be1e5ebec7d5bd14f71427d1e84f3dd0314c0f7b2291e5b200ac8c7c3b9259085905190815260200160405180910390a350600192915050565b60015490565b6000600160a060020a03831615156104cd57600080fd5b600160a060020a0384166000908152602081905260409020548211156104f257600080fd5b600160a060020a038085166000908152600260209081526040808320339094168352929052205482111561052557600080fd5b600160a060020a03841660009081526020819052604090205461054e908363ffffffff610c9d16565b600160a060020a038086166000908152602081905260408082209390935590851681522054610583908363ffffffff610caf16565b600160a060020a03808516600090815260208181526040808320949094558783168252600281528382203390931682529190915220546105c9908363ffffffff610c9d16565b600160a060020a03808616600081815260026020908152604080832033861684529091529081902093909355908516917fddf252ad1be2c89b69c2b068fc378daa952ba7f163c4a11628f55a4df523b3ef9085905190815260200160405180910390a35060019392505050565b60065460ff1681565b60035460009033600160a060020a0390811691161461065d57600080fd5b60035460a060020a900460ff161561067457600080fd5b600154610687908363ffffffff610caf16565b600155600160a060020a0383166000908152602081905260409020546106b3908363ffffffff610caf16565b600160a060020a0384166000818152602081905260409081902092909255907f0f6798a560793a54c3bcfe86a93cde1e73087d944c0ea20544137d41213968859084905190815260200160405180910390a2600160a060020a03831660007fddf252ad1be2c89b69c2b068fc378daa952ba7f163c4a11628f55a4df523b3ef8460405190815260200160405180910390a350600192915050565b600160a060020a03331660009081526020819052604081205482111561077257600080fd5b5033600160a060020a0381166000908152602081905260409020546107979083610c9d565b600160a060020a0382166000908152602081905260409020556001546107c3908363ffffffff610c9d16565b600155600160a060020a0381167fcc16f5dbb4873280815c1ee09dbd06736cffcc184412cf7a71a0fdb75d397ca58360405190815260200160405180910390a25050565b600160a060020a0333811660009081526002602090815260408083209386168352929052908120548083111561086457600160a060020a03338116600090815260026020908152604080832093881683529290529081205561089b565b610874818463ffffffff610c9d16565b600160a060020a033381166000908152600260209081526040808320938916835292905220555b600160a060020a0333811660008181526002602090815260408083209489168084529490915290819020547f8c5be1e5ebec7d5bd14f71427d1e84f3dd0314c0f7b2291e5b200ac8c7c3b925915190815260200160405180910390a35060019392505050565b600160a060020a031660009081526020819052604090205490565b60035460009033600160a060020a0390811691161461093a57600080fd5b60035460a060020a900460ff161561095157600080fd5b6003805474ff0000000000000000000000000000000000000000191660a060020a1790557fae5184fba832cb2b1f702aca6117b8d265eaf03ad33eb133f19dde0f5920fa0860405160405180910390a150600190565b600354600160a060020a031681565b60058054600181600116156101000203166002900480601f01602080910402602001604051908101604052809291908181526020018280546001816001161561010002031660029004801561043c5780601f106104115761010080835404028352916020019161043c565b6000600160a060020a0383161515610a3857600080fd5b600160a060020a033316600090815260208190526040902054821115610a5d57600080fd5b600160a060020a033316600090815260208190526040902054610a86908363ffffffff610c9d16565b600160a060020a033381166000908152602081905260408082209390935590851681522054610abb908363ffffffff610caf16565b60008085600160a060020a0316600160a060020a031681526020019081526020016000208190555082600160a060020a031633600160a060020a03167fddf252ad1be2c89b69c2b068fc378daa952ba7f163c4a11628f55a4df523b3ef8460405190815260200160405180910390a350600192915050565b600160a060020a033381166000908152600260209081526040808320938616835292905290812054610b6b908363ffffffff610caf16565b600160a060020a0333811660008181526002602090815260408083209489168084529490915290819020849055919290917f8c5be1e5ebec7d5bd14f71427d1e84f3dd0314c0f7b2291e5b200ac8c7c3b92591905190815260200160405180910390a350600192915050565b600160a060020a03918216600090815260026020908152604080832093909416825291909152205490565b60035433600160a060020a03908116911614610c1d57600080fd5b600160a060020a0381161515610c3257600080fd5b600354600160a060020a0380831691167f8be0079c531659141344cd1fd0a4f28419497f9722a3daafe3b4186f6b6457e060405160405180910390a36003805473ffffffffffffffffffffffffffffffffffffffff1916600160a060020a0392909216919091179055565b600082821115610ca957fe5b50900390565b600082820183811015610cbe57fe5b93925050505600a165627a7a7230582035358515117e924a600e35023a6017e78abe59fad25eff3d32727556acadd81f0029a165627a7a72305820258bf63dc5eaece2c21231937987cbf8e5dd0ea63903463e978051131b45719a0029606060409081526003805460a060020a60ff02191690558051908101604052600981527f5665727620466c757800000000000000000000000000000000000000000000006020820152600490805161005b9291602001906100d3565b5060408051908101604052600481527f564c555800000000000000000000000000000000000000000000000000000000602082015260059080516100a39291602001906100d3565b506006805460ff1916601217905560038054600160a060020a033316600160a060020a031990911617905561016e565b828054600181600116156101000203166002900490600052602060002090601f016020900481019282601f1061011457805160ff1916838001178555610141565b82800160010185558215610141579182015b82811115610141578251825591602001919060010190610126565b5061014d929150610151565b5090565b61016b91905b8082111561014d5760008155600101610157565b90565b610cf18061017d6000396000f3006060604052600436106100f05763ffffffff7c010000000000000000000000000000000000000000000000000000000060003504166305d2035b81146100f557806306fdde031461011c578063095ea7b3146101a657806318160ddd146101c857806323b872dd146101ed578063313ce5671461021557806340c10f191461023e57806342966c6814610260578063661884631461027857806370a082311461029a5780637d64bcb4146102b95780638da5cb5b146102cc57806395d89b41146102fb578063a9059cbb1461030e578063d73dd62314610330578063dd62ed3e14610352578063f2fde38b14610377575b600080fd5b341561010057600080fd5b610108610396565b604051901515815260200160405180910390f35b341561012757600080fd5b61012f6103a6565b60405160208082528190810183818151815260200191508051906020019080838360005b8381101561016b578082015183820152602001610153565b50505050905090810190601f1680156101985780820380516001836020036101000a031916815260200191505b509250505060405180910390f35b34156101b157600080fd5b610108600160a060020a0360043516602435610444565b34156101d357600080fd5b6101db6104b0565b60405190815260200160405180910390f35b34156101f857600080fd5b610108600160a060020a03600435811690602435166044356104b6565b341561022057600080fd5b610228610636565b60405160ff909116815260200160405180910390f35b341561024957600080fd5b610108600160a060020a036004351660243561063f565b341561026b57600080fd5b61027660043561074d565b005b341561028357600080fd5b610108600160a060020a0360043516602435610807565b34156102a557600080fd5b6101db600160a060020a0360043516610901565b34156102c457600080fd5b61010861091c565b34156102d757600080fd5b6102df6109a7565b604051600160a060020a03909116815260200160405180910390f35b341561030657600080fd5b61012f6109b6565b341561031957600080fd5b610108600160a060020a0360043516602435610a21565b341561033b57600080fd5b610108600160a060020a0360043516602435610b33565b341561035d57600080fd5b6101db600160a060020a0360043581169060243516610bd7565b341561038257600080fd5b610276600160a060020a0360043516610c02565b60035460a060020a900460ff1681565b60048054600181600116156101000203166002900480601f01602080910402602001604051908101604052809291908181526020018280546001816001161561010002031660029004801561043c5780601f106104115761010080835404028352916020019161043c565b820191906000526020600020905b81548152906001019060200180831161041f57829003601f168201915b505050505081565b600160a060020a03338116600081815260026020908152604080832094871680845294909152808220859055909291907f8c5be1e5ebec7d5bd14f71427d1e84f3dd0314c0f7b2291e5b200ac8c7c3b9259085905190815260200160405180910390a350600192915050565b60015490565b6000600160a060020a03831615156104cd57600080fd5b600160a060020a0384166000908152602081905260409020548211156104f257600080fd5b600160a060020a038085166000908152600260209081526040808320339094168352929052205482111561052557600080fd5b600160a060020a03841660009081526020819052604090205461054e908363ffffffff610c9d16565b600160a060020a038086166000908152602081905260408082209390935590851681522054610583908363ffffffff610caf16565b600160a060020a03808516600090815260208181526040808320949094558783168252600281528382203390931682529190915220546105c9908363ffffffff610c9d16565b600160a060020a03808616600081815260026020908152604080832033861684529091529081902093909355908516917fddf252ad1be2c89b69c2b068fc378daa952ba7f163c4a11628f55a4df523b3ef9085905190815260200160405180910390a35060019392505050565b60065460ff1681565b60035460009033600160a060020a0390811691161461065d57600080fd5b60035460a060020a900460ff161561067457600080fd5b600154610687908363ffffffff610caf16565b600155600160a060020a0383166000908152602081905260409020546106b3908363ffffffff610caf16565b600160a060020a0384166000818152602081905260409081902092909255907f0f6798a560793a54c3bcfe86a93cde1e73087d944c0ea20544137d41213968859084905190815260200160405180910390a2600160a060020a03831660007fddf252ad1be2c89b69c2b068fc378daa952ba7f163c4a11628f55a4df523b3ef8460405190815260200160405180910390a350600192915050565b600160a060020a03331660009081526020819052604081205482111561077257600080fd5b5033600160a060020a0381166000908152602081905260409020546107979083610c9d565b600160a060020a0382166000908152602081905260409020556001546107c3908363ffffffff610c9d16565b600155600160a060020a0381167fcc16f5dbb4873280815c1ee09dbd06736cffcc184412cf7a71a0fdb75d397ca58360405190815260200160405180910390a25050565b600160a060020a0333811660009081526002602090815260408083209386168352929052908120548083111561086457600160a060020a03338116600090815260026020908152604080832093881683529290529081205561089b565b610874818463ffffffff610c9d16565b600160a060020a033381166000908152600260209081526040808320938916835292905220555b600160a060020a0333811660008181526002602090815260408083209489168084529490915290819020547f8c5be1e5ebec7d5bd14f71427d1e84f3dd0314c0f7b2291e5b200ac8c7c3b925915190815260200160405180910390a35060019392505050565b600160a060020a031660009081526020819052604090205490565b60035460009033600160a060020a0390811691161461093a57600080fd5b60035460a060020a900460ff161561095157600080fd5b6003805474ff0000000000000000000000000000000000000000191660a060020a1790557fae5184fba832cb2b1f702aca6117b8d265eaf03ad33eb133f19dde0f5920fa0860405160405180910390a150600190565b600354600160a060020a031681565b60058054600181600116156101000203166002900480601f01602080910402602001604051908101604052809291908181526020018280546001816001161561010002031660029004801561043c5780601f106104115761010080835404028352916020019161043c565b6000600160a060020a0383161515610a3857600080fd5b600160a060020a033316600090815260208190526040902054821115610a5d57600080fd5b600160a060020a033316600090815260208190526040902054610a86908363ffffffff610c9d16565b600160a060020a033381166000908152602081905260408082209390935590851681522054610abb908363ffffffff610caf16565b60008085600160a060020a0316600160a060020a031681526020019081526020016000208190555082600160a060020a031633600160a060020a03167fddf252ad1be2c89b69c2b068fc378daa952ba7f163c4a11628f55a4df523b3ef8460405190815260200160405180910390a350600192915050565b600160a060020a033381166000908152600260209081526040808320938616835292905290812054610b6b908363ffffffff610caf16565b600160a060020a0333811660008181526002602090815260408083209489168084529490915290819020849055919290917f8c5be1e5ebec7d5bd14f71427d1e84f3dd0314c0f7b2291e5b200ac8c7c3b92591905190815260200160405180910390a350600192915050565b600160a060020a03918216600090815260026020908152604080832093909416825291909152205490565b60035433600160a060020a03908116911614610c1d57600080fd5b600160a060020a0381161515610c3257600080fd5b600354600160a060020a0380831691167f8be0079c531659141344cd1fd0a4f28419497f9722a3daafe3b4186f6b6457e060405160405180910390a36003805473ffffffffffffffffffffffffffffffffffffffff1916600160a060020a0392909216919091179055565b600082821115610ca957fe5b50900390565b600082820183811015610cbe57fe5b93925050505600a165627a7a7230582035358515117e924a600e35023a6017e78abe59fad25eff3d32727556acadd81f0029",
  "source": "pragma solidity 0.4.19;\n\nimport \"./VervFluxToken.sol\";\nimport \"zeppelin-solidity/contracts/lifecycle/Pausable.sol\";\nimport \"zeppelin-solidity/contracts/crowdsale/CappedCrowdsale.sol\";\nimport \"zeppelin-solidity/contracts/token/ERC20/TokenVesting.sol\";\n\n\ncontract VervFluxCrowdsale is CappedCrowdsale, Ownable, Pausable {\n    using SafeMath for uint256;\n\n    enum Stages {\n        PreSale,\n        Sale,\n        SaleOver\n    }\n\n    enum VestingDuration {\n        Mo3,\n        Mo6,\n        Mo9,\n        Mo12\n    }\n\n    // Invariants\n    uint256 constant public MAX_ALLOWED_FIRST_DAY_INVESTMENT = 10 ether; // 10 ETH allowed during 1'st day\n    uint256 constant public PRESALE_LOCKUP_PERIOD = 1 years / 4; // 3 months lockup\n    uint256 constant public MAX_PRESALE_RATE = 8000;\n    uint8 constant public COMPANY_RETAIN_PERCENT = 34;\n    uint8 constant public INVESTOR_MARGIN = 66;\n    uint256 constant public MAX_WHITELIST_TRANSACTION_GAS_AMOUNT = 4000000;\n    uint256 constant public MAX_GAS_PRICE = 20000000000;\n\n    // Predefined value mappings\n    mapping (uint8 => uint256) public vestingDurations;\n\n    // Whitelisted participants\n    mapping (address => bool) public whitelist;\n\n    // Tokens vesting\n    mapping (address => TokenVesting) public vestingContracts;\n\n    // Sale status\n    Stages public stage = Stages.PreSale;\n    address public companyWallet;\n    bool public isFinalized = false;\n    mapping (address => uint256) public firstDaySaleRecords;\n    uint256 public preSaleWeiRaised;\n    \n    event Finalized();\n    event WhitelistParticipant(address indexed investor);\n    event UnwhitelistParticipant(address indexed investor);\n    event CapUpdated(uint256 cap, uint256 newCap);\n    event StageUpdated(uint8 stage, uint8 newStage);\n    event PauseManagementTransferred(address indexed previousManager, address indexed newManager);\n\n    address public pauseManager;\n\n    // Check the stage to be the specified one\n    modifier atStage(Stages _stage) {\n        require(stage == _stage);\n        _;\n    }\n\n    // Check the stage to be before specified one\n    modifier beforeStage(Stages _stage) {\n        require(uint8(stage) < uint8(_stage));\n        _;\n    }\n\n    // Performs stage transition\n    // this modifier first, otherwise the guards\n    // will not take the new stage into account.\n    modifier transitionGuard() {\n        transition();\n        _;\n        transition();\n    }\n\n    modifier runsForThreeDays(uint256 _startTime, uint256 _endTime) {\n        require(_endTime == _startTime + 3 days);\n        _;\n    }\n\n    modifier underGasLimit() {\n        require(msg.gas <= MAX_WHITELIST_TRANSACTION_GAS_AMOUNT);\n        _;\n    }\n\n    modifier underGasPrice() {\n        require(tx.gasprice <= MAX_GAS_PRICE);\n        _;\n    }\n\n    modifier onlyPauseManager() {\n        require(msg.sender == pauseManager);\n        _;\n    }\n\n    // Constructor\n    // _owner = (TBD)\n    // _companyWallet = (TBD)\n    // _wallet = (TBD)\n    // _cap = 20M * ETH/ rate\n    function VervFluxCrowdsale(\n        address _owner,\n        address _companyWallet,\n        address _wallet, \n        uint256 _cap,\n        uint256 _startTime,\n        uint256 _endTime\n    )\n        public\n        runsForThreeDays(_startTime, _endTime)\n        Crowdsale(\n            _startTime, // startTime (Saturday, March 31, 2018 12:00:00 AM)\n            _endTime, // endTime (Wednesday, April 4, 2018 12:00:00 AM)\n            2000, // rate\n            _wallet // wallet\n        )\n        CappedCrowdsale(_cap)\n    {\n        require(_owner != 0x0);\n        require(_companyWallet != 0x0);\n\n        owner = _owner;\n        companyWallet = _companyWallet;\n        pauseManager = _owner;\n\n        // Define vesting periods\n        vestingDurations[uint8(VestingDuration.Mo3)] = 1 years / 4;\n        vestingDurations[uint8(VestingDuration.Mo6)] = 1 years / 2;\n        vestingDurations[uint8(VestingDuration.Mo9)] = 1 years / 4 * 3;\n        vestingDurations[uint8(VestingDuration.Mo12)] = 1 years;\n    }\n\n    /************ Public functionality ************/\n\n    // Check if participant was whitelisted\n    function isParticipantWhitelisted(address investor) public view returns (bool) {\n        return whitelist[investor];\n    }\n\n    // Invest function\n    function buyTokens(address beneficiary)\n        public\n        payable\n        whenNotPaused\n        underGasPrice\n        transitionGuard\n        atStage(Stages.Sale)\n    {\n        require(validInvestment(beneficiary));\n\n        super.buyTokens(beneficiary);\n\n        if (now < (startTime + 1 days)) {\n            firstDaySaleRecords[beneficiary] = firstDaySaleRecords[beneficiary].add(msg.value);\n        }\n    }\n\n    // Properly finalize crowdsale\n    function finalize()\n        public\n        whenNotPaused\n        transitionGuard\n        atStage(Stages.SaleOver)\n    {\n        require(!isFinalized);\n\n        isFinalized = true;\n\n        uint256 tokensDistributed = token.totalSupply();\n\n        require(tokensDistributed > 0);\n\n        uint256 totalTokens = tokensDistributed / INVESTOR_MARGIN * 100;\n        uint256 companyDist = totalTokens * COMPANY_RETAIN_PERCENT / 100;\n\n        token.mint(companyWallet, companyDist);\n\n        token.finishMinting();\n        Finalized();\n    }\n\n    // Retrieve vesting contracts\n    function vestingContract(address beneficiary) public view returns (TokenVesting) {\n        return vestingContracts[beneficiary];\n    }\n\n    /************ Owner functionality ************/\n\n    // Transfer pause menegement\n    function transferPauseManagement(address newManager)\n        public\n        onlyPauseManager\n    {\n        require(newManager != 0x0);\n\n        address previousManager = pauseManager;\n        pauseManager = newManager;\n\n        PauseManagementTransferred(previousManager, newManager);\n    }\n\n    // Update rate\n    function updateRate(uint256 newRate)\n        public\n        onlyOwner\n        transitionGuard\n        atStage(Stages.PreSale)\n    {\n        require(newRate > 0);\n\n        rate = newRate;\n    }\n\n    // Update start time\n    function updateStartTime(uint256 newStartTime)\n        public\n        onlyOwner\n        transitionGuard\n        atStage(Stages.PreSale)\n    {\n        require(newStartTime > 0);\n        require(newStartTime > now);\n        require(newStartTime < endTime);\n\n        startTime = newStartTime;\n    }\n\n    // Update end time\n    function updateEndTime(uint256 newEndTime)\n        public\n        onlyOwner\n        transitionGuard\n        atStage(Stages.PreSale)\n    {\n        require(newEndTime > 0);\n        require(newEndTime > startTime);\n\n        endTime = newEndTime;\n    }\n\n    // Update sale cap to keep it 20M\n    function updateCap(uint256 newCap)\n        public\n        onlyOwner\n        transitionGuard\n        beforeStage(Stages.SaleOver)\n    {\n        require(newCap > weiRaised);\n\n        uint256 oldCap = cap;\n        cap = newCap;\n\n        CapUpdated(oldCap, cap);\n    }\n\n    // Whitelist participant\n    function changeWhitelistParticipantsStatus(address[] investors, bool status)\n        public\n        whenNotPaused\n        onlyOwner\n        underGasLimit\n        transitionGuard\n        atStage(Stages.PreSale)\n    {\n        require(investors.length > 0);\n\n        for(uint256 i = 0; i < investors.length; i++) {\n            require(investors[i] != 0x0);\n            whitelist[investors[i]] = status;\n\n            WhitelistParticipant(investors[i]);\n        }\n    }\n\n    // Disburse presale investment\n    function distributePreBuyersLkdRewards(\n        address beneficiary,\n        uint256 tokensAmount,\n        VestingDuration vestingDuration\n    )\n        public\n        whenNotPaused\n        onlyOwner\n        transitionGuard\n        atStage(Stages.PreSale)\n    {\n        require(beneficiary != 0x0);\n        require(tokensAmount > 0);\n        \n        uint256 duration = vestingDurations[uint8(vestingDuration)];\n\n        require(duration > 0);\n\n        if (vestingContracts[beneficiary] == TokenVesting(0x0)) {\n            vestingContracts[beneficiary] = new TokenVesting(\n                beneficiary, // beneficiary\n                endTime + PRESALE_LOCKUP_PERIOD, // start\n                0, // cliff\n                duration, // duration\n                false // revocable\n            );\n        }\n\n        token.mint(address(vestingContracts[beneficiary]), tokensAmount);\n        preSaleWeiRaised = preSaleWeiRaised.add(tokensAmount.div(rate));\n    }\n\n    /************ Internal functionality ************/\n\n    // Make the stage transition if the case\n    function transition() internal {\n        // If it's time to start the sale\n        if (stage == Stages.PreSale && now > startTime) {\n            nextStage();\n        }\n\n        // If sale running and either cap or endTime is reached\n        if (stage == Stages.Sale && super.hasEnded()) {\n            nextStage();\n        }\n    }\n\n    // Creates the token to be sold.\n    function createTokenContract() internal returns (MintableToken) {\n        return new VervFluxToken();\n    }\n\n    function validTotalFirstDayAmount(address beneficiary) internal view returns (bool) {\n        return (firstDaySaleRecords[beneficiary] + msg.value) <= 10 ether;\n    }\n\n    // Validate investment\n    function validInvestment(address beneficiary) internal view returns (bool) {\n        bool allowedToInvest = isParticipantWhitelisted(beneficiary);\n        bool validAmount = false;\n\n        if (now < (startTime + 1 days)) { // Allow max. investment of 10 ETH on first day\n            allowedToInvest = allowedToInvest && validTotalFirstDayAmount(beneficiary);\n            validAmount = msg.value <= MAX_ALLOWED_FIRST_DAY_INVESTMENT;\n        } else {\n            validAmount = true;\n        }\n\n        return allowedToInvest && validAmount;\n    }\n\n    // Get token amount to transfer\n    function getTokenAmount(uint256 weiAmount) internal view returns (uint256) {\n        uint256 finalRate = rate;\n\n        if (now < (startTime + 1 days)) {\n            finalRate = rate + (rate * 5 / 100); // 15% bonus\n        } else if (now < (startTime + 2 days)) {\n            finalRate = rate + (rate * 25 / 1000); // 12.5% bonus\n        }\n\n        return weiAmount * finalRate;\n    }\n\n    // Transit to the next stage\n    function nextStage() internal {\n        uint8 oldStage = uint8(stage);\n        uint8 newStage = oldStage + 1;\n\n        stage = Stages(newStage);\n\n        StageUpdated(oldStage, newStage);\n    }\n}\n",
  "sourcePath": "/Users/nicoletailiuha/Work/verv-flux-ico/contracts/VervFluxCrowdsale.sol",
  "compiler": {
    "name": "solc",
    "version": "0.4.19+commit.c4cbbb05.Emscripten.clang"
  },
  "schemaVersion": "1.0.1",
  "updatedAt": "2018-04-30T11:37:26.068Z"
}