{
  "contractName": "VervFluxCrowdsale",
  "abi": [
    {
      "constant": true,
      "inputs": [],
      "name": "companyWallet",
      "outputs": [
        {
          "name": "",
          "type": "address"
        }
      ],
      "payable": false,
      "stateMutability": "view",
      "type": "function"
    },
    {
      "constant": true,
      "inputs": [],
      "name": "rate",
      "outputs": [
        {
          "name": "",
          "type": "uint256"
        }
      ],
      "payable": false,
      "stateMutability": "view",
      "type": "function"
    },
    {
      "constant": true,
      "inputs": [],
      "name": "endTime",
      "outputs": [
        {
          "name": "",
          "type": "uint256"
        }
      ],
      "payable": false,
      "stateMutability": "view",
      "type": "function"
    },
    {
      "constant": true,
      "inputs": [],
      "name": "cap",
      "outputs": [
        {
          "name": "",
          "type": "uint256"
        }
      ],
      "payable": false,
      "stateMutability": "view",
      "type": "function"
    },
    {
      "constant": true,
      "inputs": [
        {
          "name": "",
          "type": "address"
        }
      ],
      "name": "vestingContracts",
      "outputs": [
        {
          "name": "",
          "type": "address"
        }
      ],
      "payable": false,
      "stateMutability": "view",
      "type": "function"
    },
    {
      "constant": false,
      "inputs": [],
      "name": "unpause",
      "outputs": [],
      "payable": false,
      "stateMutability": "nonpayable",
      "type": "function"
    },
    {
      "constant": true,
      "inputs": [],
      "name": "weiRaised",
      "outputs": [
        {
          "name": "",
          "type": "uint256"
        }
      ],
      "payable": false,
      "stateMutability": "view",
      "type": "function"
    },
    {
      "constant": true,
      "inputs": [],
      "name": "wallet",
      "outputs": [
        {
          "name": "",
          "type": "address"
        }
      ],
      "payable": false,
      "stateMutability": "view",
      "type": "function"
    },
    {
      "constant": true,
      "inputs": [],
      "name": "paused",
      "outputs": [
        {
          "name": "",
          "type": "bool"
        }
      ],
      "payable": false,
      "stateMutability": "view",
      "type": "function"
    },
    {
      "constant": true,
      "inputs": [],
      "name": "maxAllowedFirstDayInvestment",
      "outputs": [
        {
          "name": "",
          "type": "uint256"
        }
      ],
      "payable": false,
      "stateMutability": "view",
      "type": "function"
    },
    {
      "constant": true,
      "inputs": [
        {
          "name": "",
          "type": "uint256"
        }
      ],
      "name": "vestingDurations",
      "outputs": [
        {
          "name": "",
          "type": "uint256"
        }
      ],
      "payable": false,
      "stateMutability": "view",
      "type": "function"
    },
    {
      "constant": true,
      "inputs": [],
      "name": "startTime",
      "outputs": [
        {
          "name": "",
          "type": "uint256"
        }
      ],
      "payable": false,
      "stateMutability": "view",
      "type": "function"
    },
    {
      "constant": false,
      "inputs": [],
      "name": "pause",
      "outputs": [],
      "payable": false,
      "stateMutability": "nonpayable",
      "type": "function"
    },
    {
      "constant": true,
      "inputs": [],
      "name": "isFinalized",
      "outputs": [
        {
          "name": "",
          "type": "bool"
        }
      ],
      "payable": false,
      "stateMutability": "view",
      "type": "function"
    },
    {
      "constant": true,
      "inputs": [],
      "name": "owner",
      "outputs": [
        {
          "name": "",
          "type": "address"
        }
      ],
      "payable": false,
      "stateMutability": "view",
      "type": "function"
    },
    {
      "constant": true,
      "inputs": [
        {
          "name": "",
          "type": "address"
        }
      ],
      "name": "finalizationRetainStrategy",
      "outputs": [
        {
          "name": "",
          "type": "uint256"
        }
      ],
      "payable": false,
      "stateMutability": "view",
      "type": "function"
    },
    {
      "constant": true,
      "inputs": [
        {
          "name": "",
          "type": "address"
        }
      ],
      "name": "whitelist",
      "outputs": [
        {
          "name": "",
          "type": "bool"
        }
      ],
      "payable": false,
      "stateMutability": "view",
      "type": "function"
    },
    {
      "constant": true,
      "inputs": [
        {
          "name": "",
          "type": "uint256"
        }
      ],
      "name": "bonuses",
      "outputs": [
        {
          "name": "",
          "type": "uint256"
        }
      ],
      "payable": false,
      "stateMutability": "view",
      "type": "function"
    },
    {
      "constant": true,
      "inputs": [],
      "name": "stage",
      "outputs": [
        {
          "name": "",
          "type": "uint8"
        }
      ],
      "payable": false,
      "stateMutability": "view",
      "type": "function"
    },
    {
      "constant": true,
      "inputs": [],
      "name": "bountyWallet",
      "outputs": [
        {
          "name": "",
          "type": "address"
        }
      ],
      "payable": false,
      "stateMutability": "view",
      "type": "function"
    },
    {
      "constant": true,
      "inputs": [],
      "name": "lockupPeriod",
      "outputs": [
        {
          "name": "",
          "type": "uint256"
        }
      ],
      "payable": false,
      "stateMutability": "view",
      "type": "function"
    },
    {
      "constant": false,
      "inputs": [
        {
          "name": "newOwner",
          "type": "address"
        }
      ],
      "name": "transferOwnership",
      "outputs": [],
      "payable": false,
      "stateMutability": "nonpayable",
      "type": "function"
    },
    {
      "constant": true,
      "inputs": [],
      "name": "token",
      "outputs": [
        {
          "name": "",
          "type": "address"
        }
      ],
      "payable": false,
      "stateMutability": "view",
      "type": "function"
    },
    {
      "inputs": [
        {
          "name": "_owner",
          "type": "address"
        },
        {
          "name": "_companyWallet",
          "type": "address"
        },
        {
          "name": "_bountyWallet",
          "type": "address"
        },
        {
          "name": "_wallet",
          "type": "address"
        },
        {
          "name": "_cap",
          "type": "uint256"
        }
      ],
      "payable": false,
      "stateMutability": "nonpayable",
      "type": "constructor"
    },
    {
      "payable": true,
      "stateMutability": "payable",
      "type": "fallback"
    },
    {
      "anonymous": false,
      "inputs": [],
      "name": "Finalized",
      "type": "event"
    },
    {
      "anonymous": false,
      "inputs": [
        {
          "indexed": true,
          "name": "investor",
          "type": "address"
        }
      ],
      "name": "WhitelistParticipant",
      "type": "event"
    },
    {
      "anonymous": false,
      "inputs": [
        {
          "indexed": false,
          "name": "cap",
          "type": "uint256"
        },
        {
          "indexed": false,
          "name": "newCap",
          "type": "uint256"
        }
      ],
      "name": "CapUpdated",
      "type": "event"
    },
    {
      "anonymous": false,
      "inputs": [
        {
          "indexed": false,
          "name": "stage",
          "type": "uint256"
        },
        {
          "indexed": false,
          "name": "newStage",
          "type": "uint256"
        }
      ],
      "name": "StageUpdated",
      "type": "event"
    },
    {
      "anonymous": false,
      "inputs": [],
      "name": "Pause",
      "type": "event"
    },
    {
      "anonymous": false,
      "inputs": [],
      "name": "Unpause",
      "type": "event"
    },
    {
      "anonymous": false,
      "inputs": [
        {
          "indexed": true,
          "name": "previousOwner",
          "type": "address"
        },
        {
          "indexed": true,
          "name": "newOwner",
          "type": "address"
        }
      ],
      "name": "OwnershipTransferred",
      "type": "event"
    },
    {
      "anonymous": false,
      "inputs": [
        {
          "indexed": true,
          "name": "purchaser",
          "type": "address"
        },
        {
          "indexed": true,
          "name": "beneficiary",
          "type": "address"
        },
        {
          "indexed": false,
          "name": "value",
          "type": "uint256"
        },
        {
          "indexed": false,
          "name": "amount",
          "type": "uint256"
        }
      ],
      "name": "TokenPurchase",
      "type": "event"
    },
    {
      "constant": true,
      "inputs": [
        {
          "name": "investor",
          "type": "address"
        }
      ],
      "name": "isParticipantWhitelisted",
      "outputs": [
        {
          "name": "",
          "type": "bool"
        }
      ],
      "payable": false,
      "stateMutability": "view",
      "type": "function"
    },
    {
      "constant": true,
      "inputs": [],
      "name": "hasEnded",
      "outputs": [
        {
          "name": "",
          "type": "bool"
        }
      ],
      "payable": false,
      "stateMutability": "view",
      "type": "function"
    },
    {
      "constant": false,
      "inputs": [
        {
          "name": "beneficiary",
          "type": "address"
        }
      ],
      "name": "buyTokens",
      "outputs": [],
      "payable": true,
      "stateMutability": "payable",
      "type": "function"
    },
    {
      "constant": false,
      "inputs": [],
      "name": "finalize",
      "outputs": [],
      "payable": false,
      "stateMutability": "nonpayable",
      "type": "function"
    },
    {
      "constant": true,
      "inputs": [
        {
          "name": "beneficiary",
          "type": "address"
        }
      ],
      "name": "vestingContract",
      "outputs": [
        {
          "name": "",
          "type": "address"
        }
      ],
      "payable": false,
      "stateMutability": "view",
      "type": "function"
    },
    {
      "constant": false,
      "inputs": [
        {
          "name": "newRate",
          "type": "uint256"
        }
      ],
      "name": "updateRate",
      "outputs": [],
      "payable": false,
      "stateMutability": "nonpayable",
      "type": "function"
    },
    {
      "constant": false,
      "inputs": [
        {
          "name": "newStartTime",
          "type": "uint256"
        }
      ],
      "name": "updateStartTime",
      "outputs": [],
      "payable": false,
      "stateMutability": "nonpayable",
      "type": "function"
    },
    {
      "constant": false,
      "inputs": [
        {
          "name": "newEndTime",
          "type": "uint256"
        }
      ],
      "name": "updateEndTime",
      "outputs": [],
      "payable": false,
      "stateMutability": "nonpayable",
      "type": "function"
    },
    {
      "constant": false,
      "inputs": [
        {
          "name": "newCap",
          "type": "uint256"
        }
      ],
      "name": "updateCap",
      "outputs": [],
      "payable": false,
      "stateMutability": "nonpayable",
      "type": "function"
    },
    {
      "constant": false,
      "inputs": [
        {
          "name": "investor",
          "type": "address"
        }
      ],
      "name": "whitelistParticipant",
      "outputs": [],
      "payable": false,
      "stateMutability": "nonpayable",
      "type": "function"
    },
    {
      "constant": false,
      "inputs": [
        {
          "name": "beneficiary",
          "type": "address"
        },
        {
          "name": "tokensAmount",
          "type": "uint256"
        },
        {
          "name": "vestingDuration",
          "type": "uint8"
        }
      ],
      "name": "disbursePresaleInvestment",
      "outputs": [],
      "payable": true,
      "stateMutability": "payable",
      "type": "function"
    }
  ],
  "bytecode": "0x60606040526007805460a060020a60ff0219908116909155678ac7230489e80000600b5562784ce0600c55600f805460ff1916905560108054909116905534156200004957600080fd5b60405160a08062003c1283398101604052808051919060200180519190602001805191906020018051919060200180519150819050635abecf80635ac415806107d085428410156200009a57600080fd5b83831015620000a857600080fd5b60008211620000b657600080fd5b600160a060020a0381161515620000cc57600080fd5b620000e4640100000000620014f46200028282021704565b60008054600160a060020a0319908116600160a060020a039384161782556001969096556002949094556004929092556003805490941691161790915581116200012d57600080fd5b60065560078054600160a060020a03191633600160a060020a0390811691909117909155851615156200015f57600080fd5b600160a060020a03841615156200017557600080fd5b600160a060020a03831615156200018b57600080fd5b505060078054600160a060020a0319908116600160a060020a0395861617909155600f805461010060a860020a031916610100948616850217908190556010805490921692851692909217815591900482166000908152600960209081526040808320602190559254909316815290812060019055600890915262784ce07f5eff886ea0ce6ca488a3d6e336d6c0f75f46d19b42c06ce5ee98e42c96d256c75562f099c07fad67d757c34507f157cacfa2e3153e9f260a2244f30428821be7be64587ac55f55600290526301e133807f6add646517a5b0f6793cd5891b7937d28a5b2981a5d88ebc7cd776088fea904155620002bb565b60006200028e620002aa565b604051809103906000f0801515620002a557600080fd5b905090565b604051610d938062002e7f83390190565b612bb480620002cb6000396000f300606060405260043610620001b55763ffffffff60e060020a60003504166306bcf02f8114620001c25780631ec32d1514620001db5780631fff8bb3146200020d57806325c1ef8814620002435780632c4e722e14620002625780633197cbb6146200028a578063355274ea14620002a05780633791587414620002b65780633f4ba83a14620002d85780634042b66f14620002ee5780634bb278f31462000304578063521eb273146200031a5780635c975abb146200033057806364751f221462000346578063665ba3e1146200036857806369ea1771146200037e5780636ab3846b1462000397578063740958e314620003b057806378e9792514620003c95780638456cb5914620003df5780638d4e408314620003f55780638da5cb5b146200040b57806396c5200a14620004215780639a86813c14620004435780639b19251a1462000465578063a7d688961462000487578063ab37564114620004a0578063c040e6b814620004b9578063e576052014620004f4578063ec8ac4d8146200050a578063ecb70fb71462000520578063ee947a7c1462000536578063f2fde38b146200054c578063fc0c546a146200056e575b620001c03362000584565b005b3415620001ce57600080fd5b620001c0600435620005f6565b3415620001e757600080fd5b620001f162000669565b604051600160a060020a03909116815260200160405180910390f35b34156200021957600080fd5b6200022f600160a060020a03600435166200067d565b604051901515815260200160405180910390f35b620001c0600160a060020a036004351660243560ff604435166200069b565b34156200026e57600080fd5b62000278620008c2565b60405190815260200160405180910390f35b34156200029657600080fd5b62000278620008c8565b3415620002ac57600080fd5b62000278620008ce565b3415620002c257600080fd5b620001f1600160a060020a0360043516620008d4565b3415620002e457600080fd5b620001c0620008ef565b3415620002fa57600080fd5b6200027862000970565b34156200031057600080fd5b620001c062000976565b34156200032657600080fd5b620001f162000c94565b34156200033c57600080fd5b6200022f62000ca3565b34156200035257600080fd5b620001c0600160a060020a036004351662000cb3565b34156200037457600080fd5b6200027862000d82565b34156200038a57600080fd5b620001c060043562000d88565b3415620003a357600080fd5b620001c060043562000dec565b3415620003bc57600080fd5b6200027860043562000e5f565b3415620003d557600080fd5b6200027862000e71565b3415620003eb57600080fd5b620001c062000e77565b34156200040157600080fd5b6200022f62000efd565b34156200041757600080fd5b620001f162000f0d565b34156200042d57600080fd5b620001f1600160a060020a036004351662000f1c565b34156200044f57600080fd5b62000278600160a060020a036004351662000f3a565b34156200047157600080fd5b6200022f600160a060020a036004351662000f4c565b34156200049357600080fd5b620001c060043562000f61565b3415620004ac57600080fd5b620002786004356200100c565b3415620004c557600080fd5b620004cf6200101e565b60405180826002811115620004e057fe5b60ff16815260200191505060405180910390f35b34156200050057600080fd5b620001f162001027565b620001c0600160a060020a036004351662000584565b34156200052c57600080fd5b6200022f62001036565b34156200054257600080fd5b6200027862001052565b34156200055857600080fd5b620001c0600160a060020a036004351662001058565b34156200057a57600080fd5b620001f1620010f5565b60075460a060020a900460ff16156200059c57600080fd5b620005a662001104565b600180600f5460ff166002811115620005bb57fe5b14620005c657600080fd5b620005d18262001170565b1515620005dd57600080fd5b620005e882620011d5565b50620005f362001104565b50565b60075433600160a060020a039081169116146200061257600080fd5b6200061c62001104565b600080600f5460ff1660028111156200063157fe5b146200063c57600080fd5b600082116200064a57600080fd5b60025482106200065957600080fd5b506001819055620005f362001104565b600f546101009004600160a060020a031681565b600160a060020a03166000908152600d602052604090205460ff1690565b60075460009060a060020a900460ff1615620006b657600080fd5b60075433600160a060020a03908116911614620006d257600080fd5b620006dc62001104565b600080600f5460ff166002811115620006f157fe5b14620006fc57600080fd5b600160a060020a03851615156200071257600080fd5b600084116200072057600080fd5b600860008460028111156200073157fe5b81526020019081526020016000205491506000821115156200075257600080fd5b600160a060020a038581166000908152600e60205260409020541615156200080c5784600c544201600084600062000789620014e3565b600160a060020a03909516855260208501939093526040808501929092526060840152901515608083015260a09091019051809103906000f0801515620007cf57600080fd5b600160a060020a038681166000908152600e60205260409020805473ffffffffffffffffffffffffffffffffffffffff1916929091169190911790555b60008054600160a060020a038781168352600e602052604080842054928216936340c10f1993909216918891516020015260405160e060020a63ffffffff8516028152600160a060020a0390921660048301526024820152604401602060405180830381600087803b15156200088157600080fd5b6102c65a03f115156200089357600080fd5b505050604051805150506000341115620008b157620008b16200130a565b50620008bc62001104565b50505050565b60045481565b60025481565b60065481565b600e60205260009081526040902054600160a060020a031681565b60075433600160a060020a039081169116146200090b57600080fd5b60075460a060020a900460ff1615156200092457600080fd5b6007805474ff0000000000000000000000000000000000000000191690557f7805862f689e2f13df9f062ff482ad3ad112aca9e0847911ed832e158c525b3360405160405180910390a1565b60055481565b6000806000806000806000600760149054906101000a900460ff161515156200099e57600080fd5b620009a862001104565b600280600f5460ff166002811115620009bd57fe5b14620009c857600080fd5b60105460a060020a900460ff1615620009e057600080fd5b6010805474ff0000000000000000000000000000000000000000191660a060020a1790819055600f54600160a060020a036101009091048116600090815260096020526040808220549383168252808220548254949c509a5092909116916318160ddd919051602001526040518163ffffffff1660e060020a028152600401602060405180830381600087803b151562000a7957600080fd5b6102c65a03f1151562000a8b57600080fd5b5050506040518051965050606488900387900394506000861162000aae57600080fd5b848681151562000aba57fe5b046064029350606488850281151562000acf57fe5b049250606484880260008054600f54939092049450600160a060020a03918216926340c10f1992610100909104169086906040516020015260405160e060020a63ffffffff8516028152600160a060020a0390921660048301526024820152604401602060405180830381600087803b151562000b4b57600080fd5b6102c65a03f1151562000b5d57600080fd5b5050506040518051505060008054601054600160a060020a03918216926340c10f19929091169085906040516020015260405160e060020a63ffffffff8516028152600160a060020a0390921660048301526024820152604401602060405180830381600087803b151562000bd157600080fd5b6102c65a03f1151562000be357600080fd5b5050506040518051505060008054600160a060020a031690637d64bcb490604051602001526040518163ffffffff1660e060020a028152600401602060405180830381600087803b151562000c3757600080fd5b6102c65a03f1151562000c4957600080fd5b50505060405180519050507f6823b073d48d6e3a7d385eeb601452d680e74bb46afe3255a7d778f3a9b1768160405160405180910390a15062000c8b62001104565b50505050505050565b600354600160a060020a031681565b60075460a060020a900460ff1681565b60075460a060020a900460ff161562000ccb57600080fd5b60075433600160a060020a0390811691161462000ce757600080fd5b62000cf162001104565b600080600f5460ff16600281111562000d0657fe5b1462000d1157600080fd5b600160a060020a038216151562000d2757600080fd5b600160a060020a0382166000818152600d602052604090819020805460ff191660011790557f630babaca8b4df5e468513e75763c27d307419fb12a74b282651390b7a2ab5fb905160405180910390a250620005f362001104565b600b5481565b60075433600160a060020a0390811691161462000da457600080fd5b62000dae62001104565b600080600f5460ff16600281111562000dc357fe5b1462000dce57600080fd5b6000821162000ddc57600080fd5b506004819055620005f362001104565b60075433600160a060020a0390811691161462000e0857600080fd5b62000e1262001104565b600080600f5460ff16600281111562000e2757fe5b1462000e3257600080fd5b6000821162000e4057600080fd5b600154821162000e4f57600080fd5b506002819055620005f362001104565b60086020526000908152604090205481565b60015481565b60075433600160a060020a0390811691161462000e9357600080fd5b60075460a060020a900460ff161562000eab57600080fd5b6007805474ff0000000000000000000000000000000000000000191660a060020a1790557f6985a02210a168e66602d3235cb6db0e70f92b3ba4d376a33c0f3d9434bff62560405160405180910390a1565b60105460a060020a900460ff1681565b600754600160a060020a031681565b600160a060020a039081166000908152600e60205260409020541690565b60096020526000908152604090205481565b600d6020526000908152604090205460ff1681565b60075460009033600160a060020a0390811691161462000f8057600080fd5b62000f8a62001104565b600280600f5460ff16600281111562000f9f57fe5b1062000faa57600080fd5b600654831162000fb957600080fd5b600680549084905591507fd3636070a5893c88088ab04180c3c0fe9be316dbea031e03a4aadbd688bf553a828460405191825260208201526040908101905180910390a1506200100862001104565b5050565b600a6020526000908152604090205481565b600f5460ff1681565b601054600160a060020a031681565b60006002600f5460ff1660028111156200104c57fe5b14905090565b600c5481565b60075433600160a060020a039081169116146200107457600080fd5b600160a060020a03811615156200108a57600080fd5b600754600160a060020a0380831691167f8be0079c531659141344cd1fd0a4f28419497f9722a3daafe3b4186f6b6457e060405160405180910390a36007805473ffffffffffffffffffffffffffffffffffffffff1916600160a060020a0392909216919091179055565b600054600160a060020a031681565b6000600f5460ff1660028111156200111857fe5b14801562001127575060015442115b156200113757620011376200133f565b6001600f5460ff1660028111156200114b57fe5b1480156200115e57506200115e620013c4565b156200116e576200116e6200133f565b565b600154600090819081906202a30001421015620011bb5762001192846200067d565b91506001546201518001421015620011b15750600b54341115620011b5565b5060015b620011c2565b5060019050805b818015620011cd5750805b949350505050565b600080600160a060020a0383161515620011ee57600080fd5b620011f8620013e8565b15156200120457600080fd5b34915062001212826200141c565b6005549091506200122a908363ffffffff6200149216565b60055560008054600160a060020a0316906340c10f1990859084906040516020015260405160e060020a63ffffffff8516028152600160a060020a0390921660048301526024820152604401602060405180830381600087803b15156200129057600080fd5b6102c65a03f11515620012a257600080fd5b505050604051805190505082600160a060020a031633600160a060020a03167f623b3804fa71d67900d064613da8f94b9617215ee90799290593e1745087ad18848460405191825260208201526040908101905180910390a3620013056200130a565b505050565b600354600160a060020a03163480156108fc0290604051600060405180830381858888f1935050505015156200116e57600080fd5b600f54600090819060ff1660028111156200135657fe5b915050600181018060028111156200136a57fe5b600f805460ff191660018360028111156200138157fe5b02179055507ff4ee429c3a43d05bf8a366e16e9b7ff7dfe43c3fb80ae88d14aba84163a983e5828260405191825260208201526040908101905180910390a15050565b6006546005546000919010158080620013e25750620013e2620014a9565b91505090565b60008060065462001405346005546200149290919063ffffffff16565b11159050808015620013e25750620013e2620014b1565b6004546001546000919062015180014210156200144b576004546103e8906096025b0460045401905062001489565b6001546202a300014210156200146b576004546103e890607d026200143e565b6001546203f480014210156200148957506004546103e86064820204015b91909102919050565b600082820183811015620014a257fe5b9392505050565b600254421190565b60008060006001544210158015620014cb57506002544211155b915050341515818015620014dc5750805b9250505090565b6040516108c8806200152e83390190565b6000620015006200151c565b604051809103906000f08015156200151757600080fd5b905090565b604051610d938062001df68339019056006060604052341561000f57600080fd5b60405160a0806108c8833981016040528080519190602001805191906020018051919060200180519190602001805160008054600160a060020a03191633600160a060020a039081169190911790915590925086161515905061007157600080fd5b8183111561007e57600080fd5b60018054600160a060020a031916600160a060020a0387161790556005805460ff191682151517905560048290556100c384846401000000006100d281026106c41704565b600255505050600355506100e8565b6000828201838110156100e157fe5b9392505050565b6107d1806100f76000396000f3006060604052600436106100ab5763ffffffff60e060020a6000350416630fb5a6b481146100b057806313d033c0146100d55780631726cbc8146100e85780631916558714610107578063384711cc1461012857806338af3eed1461014757806374a8f10314610176578063872a7810146101955780638da5cb5b146101bc5780639852595c146101cf578063be9a6555146101ee578063f2fde38b14610201578063fa01dc0614610220575b600080fd5b34156100bb57600080fd5b6100c361023f565b60405190815260200160405180910390f35b34156100e057600080fd5b6100c3610245565b34156100f357600080fd5b6100c3600160a060020a036004351661024b565b341561011257600080fd5b610126600160a060020a0360043516610283565b005b341561013357600080fd5b6100c3600160a060020a036004351661032f565b341561015257600080fd5b61015a610470565b604051600160a060020a03909116815260200160405180910390f35b341561018157600080fd5b610126600160a060020a036004351661047f565b34156101a057600080fd5b6101a86105d2565b604051901515815260200160405180910390f35b34156101c757600080fd5b61015a6105db565b34156101da57600080fd5b6100c3600160a060020a03600435166105ea565b34156101f957600080fd5b6100c36105fc565b341561020c57600080fd5b610126600160a060020a0360043516610602565b341561022b57600080fd5b6101a8600160a060020a036004351661069d565b60045481565b60025481565b600160a060020a03811660009081526006602052604081205461027d906102718461032f565b9063ffffffff6106b216565b92915050565b600061028e8261024b565b90506000811161029d57600080fd5b600160a060020a0382166000908152600660205260409020546102c6908263ffffffff6106c416565b600160a060020a038084166000818152600660205260409020929092556001546102f89291168363ffffffff6106de16565b7ffb81f9b30d73d830c3544b34d827c08142579ee75710b490bab0b3995468c5658160405190815260200160405180910390a15050565b600080600083600160a060020a03166370a082313060006040516020015260405160e060020a63ffffffff8416028152600160a060020a039091166004820152602401602060405180830381600087803b151561038b57600080fd5b6102c65a03f1151561039c57600080fd5b5050506040518051600160a060020a0386166000908152600660205260409020549093506103d29150839063ffffffff6106c416565b90506002544210156103e75760009250610469565b6004546003546103fc9163ffffffff6106c416565b421015806104225750600160a060020a03841660009081526007602052604090205460ff165b1561042f57809250610469565b61046660045461045a61044d600354426106b290919063ffffffff16565b849063ffffffff61076316565b9063ffffffff61078e16565b92505b5050919050565b600154600160a060020a031681565b600080548190819033600160a060020a0390811691161461049f57600080fd5b60055460ff1615156104b057600080fd5b600160a060020a03841660009081526007602052604090205460ff16156104d657600080fd5b83600160a060020a03166370a082313060006040516020015260405160e060020a63ffffffff8416028152600160a060020a039091166004820152602401602060405180830381600087803b151561052d57600080fd5b6102c65a03f1151561053e57600080fd5b5050506040518051905092506105538461024b565b9150610565838363ffffffff6106b216565b600160a060020a038086166000818152600760205260408120805460ff19166001179055549293506105a0929091168363ffffffff6106de16565b7f44825a4b2df8acb19ce4e1afba9aa850c8b65cdb7942e2078f27d0b0960efee660405160405180910390a150505050565b60055460ff1681565b600054600160a060020a031681565b60066020526000908152604090205481565b60035481565b60005433600160a060020a0390811691161461061d57600080fd5b600160a060020a038116151561063257600080fd5b600054600160a060020a0380831691167f8be0079c531659141344cd1fd0a4f28419497f9722a3daafe3b4186f6b6457e060405160405180910390a36000805473ffffffffffffffffffffffffffffffffffffffff1916600160a060020a0392909216919091179055565b60076020526000908152604090205460ff1681565b6000828211156106be57fe5b50900390565b6000828201838110156106d357fe5b8091505b5092915050565b82600160a060020a031663a9059cbb838360006040516020015260405160e060020a63ffffffff8516028152600160a060020a0390921660048301526024820152604401602060405180830381600087803b151561073b57600080fd5b6102c65a03f1151561074c57600080fd5b50505060405180519050151561075e57fe5b505050565b60008083151561077657600091506106d7565b5082820282848281151561078657fe5b04146106d357fe5b600080828481151561079c57fe5b049493505050505600a165627a7a72305820d80d05cde61dcac67cef2bd7684cec9915f465aae4b1d6c28086339f85176af80029606060409081526003805460a060020a60ff02191690558051908101604052600981527f5665727620466c757800000000000000000000000000000000000000000000006020820152600490805161005b9291602001906100d3565b5060408051908101604052600381527f464c580000000000000000000000000000000000000000000000000000000000602082015260059080516100a39291602001906100d3565b506006805460ff1916601217905560038054600160a060020a033316600160a060020a031990911617905561016e565b828054600181600116156101000203166002900490600052602060002090601f016020900481019282601f1061011457805160ff1916838001178555610141565b82800160010185558215610141579182015b82811115610141578251825591602001919060010190610126565b5061014d929150610151565b5090565b61016b91905b8082111561014d5760008155600101610157565b90565b610c168061017d6000396000f3006060604052600436106100e55763ffffffff7c010000000000000000000000000000000000000000000000000000000060003504166305d2035b81146100ea57806306fdde0314610111578063095ea7b31461019b57806318160ddd146101bd57806323b872dd146101e2578063313ce5671461020a57806340c10f1914610233578063661884631461025557806370a08231146102775780637d64bcb4146102965780638da5cb5b146102a957806395d89b41146102d8578063a9059cbb146102eb578063d73dd6231461030d578063dd62ed3e1461032f578063f2fde38b14610354575b600080fd5b34156100f557600080fd5b6100fd610375565b604051901515815260200160405180910390f35b341561011c57600080fd5b610124610385565b60405160208082528190810183818151815260200191508051906020019080838360005b83811015610160578082015183820152602001610148565b50505050905090810190601f16801561018d5780820380516001836020036101000a031916815260200191505b509250505060405180910390f35b34156101a657600080fd5b6100fd600160a060020a0360043516602435610423565b34156101c857600080fd5b6101d061048f565b60405190815260200160405180910390f35b34156101ed57600080fd5b6100fd600160a060020a0360043581169060243516604435610495565b341561021557600080fd5b61021d610615565b60405160ff909116815260200160405180910390f35b341561023e57600080fd5b6100fd600160a060020a036004351660243561061e565b341561026057600080fd5b6100fd600160a060020a036004351660243561072c565b341561028257600080fd5b6101d0600160a060020a0360043516610826565b34156102a157600080fd5b6100fd610841565b34156102b457600080fd5b6102bc6108cc565b604051600160a060020a03909116815260200160405180910390f35b34156102e357600080fd5b6101246108db565b34156102f657600080fd5b6100fd600160a060020a0360043516602435610946565b341561031857600080fd5b6100fd600160a060020a0360043516602435610a58565b341561033a57600080fd5b6101d0600160a060020a0360043581169060243516610afc565b341561035f57600080fd5b610373600160a060020a0360043516610b27565b005b60035460a060020a900460ff1681565b60048054600181600116156101000203166002900480601f01602080910402602001604051908101604052809291908181526020018280546001816001161561010002031660029004801561041b5780601f106103f05761010080835404028352916020019161041b565b820191906000526020600020905b8154815290600101906020018083116103fe57829003601f168201915b505050505081565b600160a060020a03338116600081815260026020908152604080832094871680845294909152808220859055909291907f8c5be1e5ebec7d5bd14f71427d1e84f3dd0314c0f7b2291e5b200ac8c7c3b9259085905190815260200160405180910390a350600192915050565b60015490565b6000600160a060020a03831615156104ac57600080fd5b600160a060020a0384166000908152602081905260409020548211156104d157600080fd5b600160a060020a038085166000908152600260209081526040808320339094168352929052205482111561050457600080fd5b600160a060020a03841660009081526020819052604090205461052d908363ffffffff610bc216565b600160a060020a038086166000908152602081905260408082209390935590851681522054610562908363ffffffff610bd416565b600160a060020a03808516600090815260208181526040808320949094558783168252600281528382203390931682529190915220546105a8908363ffffffff610bc216565b600160a060020a03808616600081815260026020908152604080832033861684529091529081902093909355908516917fddf252ad1be2c89b69c2b068fc378daa952ba7f163c4a11628f55a4df523b3ef9085905190815260200160405180910390a35060019392505050565b60065460ff1681565b60035460009033600160a060020a0390811691161461063c57600080fd5b60035460a060020a900460ff161561065357600080fd5b600154610666908363ffffffff610bd416565b600155600160a060020a038316600090815260208190526040902054610692908363ffffffff610bd416565b600160a060020a0384166000818152602081905260409081902092909255907f0f6798a560793a54c3bcfe86a93cde1e73087d944c0ea20544137d41213968859084905190815260200160405180910390a2600160a060020a03831660007fddf252ad1be2c89b69c2b068fc378daa952ba7f163c4a11628f55a4df523b3ef8460405190815260200160405180910390a350600192915050565b600160a060020a0333811660009081526002602090815260408083209386168352929052908120548083111561078957600160a060020a0333811660009081526002602090815260408083209388168352929052908120556107c0565b610799818463ffffffff610bc216565b600160a060020a033381166000908152600260209081526040808320938916835292905220555b600160a060020a0333811660008181526002602090815260408083209489168084529490915290819020547f8c5be1e5ebec7d5bd14f71427d1e84f3dd0314c0f7b2291e5b200ac8c7c3b925915190815260200160405180910390a35060019392505050565b600160a060020a031660009081526020819052604090205490565b60035460009033600160a060020a0390811691161461085f57600080fd5b60035460a060020a900460ff161561087657600080fd5b6003805474ff0000000000000000000000000000000000000000191660a060020a1790557fae5184fba832cb2b1f702aca6117b8d265eaf03ad33eb133f19dde0f5920fa0860405160405180910390a150600190565b600354600160a060020a031681565b60058054600181600116156101000203166002900480601f01602080910402602001604051908101604052809291908181526020018280546001816001161561010002031660029004801561041b5780601f106103f05761010080835404028352916020019161041b565b6000600160a060020a038316151561095d57600080fd5b600160a060020a03331660009081526020819052604090205482111561098257600080fd5b600160a060020a0333166000908152602081905260409020546109ab908363ffffffff610bc216565b600160a060020a0333811660009081526020819052604080822093909355908516815220546109e0908363ffffffff610bd416565b60008085600160a060020a0316600160a060020a031681526020019081526020016000208190555082600160a060020a031633600160a060020a03167fddf252ad1be2c89b69c2b068fc378daa952ba7f163c4a11628f55a4df523b3ef8460405190815260200160405180910390a350600192915050565b600160a060020a033381166000908152600260209081526040808320938616835292905290812054610a90908363ffffffff610bd416565b600160a060020a0333811660008181526002602090815260408083209489168084529490915290819020849055919290917f8c5be1e5ebec7d5bd14f71427d1e84f3dd0314c0f7b2291e5b200ac8c7c3b92591905190815260200160405180910390a350600192915050565b600160a060020a03918216600090815260026020908152604080832093909416825291909152205490565b60035433600160a060020a03908116911614610b4257600080fd5b600160a060020a0381161515610b5757600080fd5b600354600160a060020a0380831691167f8be0079c531659141344cd1fd0a4f28419497f9722a3daafe3b4186f6b6457e060405160405180910390a36003805473ffffffffffffffffffffffffffffffffffffffff1916600160a060020a0392909216919091179055565b600082821115610bce57fe5b50900390565b600082820183811015610be357fe5b93925050505600a165627a7a72305820cffd20c6d70208a06bd925631ec7eb9a5070f733ebd36eb3ccb37d2df94c72d30029a165627a7a72305820ab70eecafa88d6429b6a8ab11d4646003b5034453e80c44cf168539147fbe5c50029606060409081526003805460a060020a60ff02191690558051908101604052600981527f5665727620466c757800000000000000000000000000000000000000000000006020820152600490805161005b9291602001906100d3565b5060408051908101604052600381527f464c580000000000000000000000000000000000000000000000000000000000602082015260059080516100a39291602001906100d3565b506006805460ff1916601217905560038054600160a060020a033316600160a060020a031990911617905561016e565b828054600181600116156101000203166002900490600052602060002090601f016020900481019282601f1061011457805160ff1916838001178555610141565b82800160010185558215610141579182015b82811115610141578251825591602001919060010190610126565b5061014d929150610151565b5090565b61016b91905b8082111561014d5760008155600101610157565b90565b610c168061017d6000396000f3006060604052600436106100e55763ffffffff7c010000000000000000000000000000000000000000000000000000000060003504166305d2035b81146100ea57806306fdde0314610111578063095ea7b31461019b57806318160ddd146101bd57806323b872dd146101e2578063313ce5671461020a57806340c10f1914610233578063661884631461025557806370a08231146102775780637d64bcb4146102965780638da5cb5b146102a957806395d89b41146102d8578063a9059cbb146102eb578063d73dd6231461030d578063dd62ed3e1461032f578063f2fde38b14610354575b600080fd5b34156100f557600080fd5b6100fd610375565b604051901515815260200160405180910390f35b341561011c57600080fd5b610124610385565b60405160208082528190810183818151815260200191508051906020019080838360005b83811015610160578082015183820152602001610148565b50505050905090810190601f16801561018d5780820380516001836020036101000a031916815260200191505b509250505060405180910390f35b34156101a657600080fd5b6100fd600160a060020a0360043516602435610423565b34156101c857600080fd5b6101d061048f565b60405190815260200160405180910390f35b34156101ed57600080fd5b6100fd600160a060020a0360043581169060243516604435610495565b341561021557600080fd5b61021d610615565b60405160ff909116815260200160405180910390f35b341561023e57600080fd5b6100fd600160a060020a036004351660243561061e565b341561026057600080fd5b6100fd600160a060020a036004351660243561072c565b341561028257600080fd5b6101d0600160a060020a0360043516610826565b34156102a157600080fd5b6100fd610841565b34156102b457600080fd5b6102bc6108cc565b604051600160a060020a03909116815260200160405180910390f35b34156102e357600080fd5b6101246108db565b34156102f657600080fd5b6100fd600160a060020a0360043516602435610946565b341561031857600080fd5b6100fd600160a060020a0360043516602435610a58565b341561033a57600080fd5b6101d0600160a060020a0360043581169060243516610afc565b341561035f57600080fd5b610373600160a060020a0360043516610b27565b005b60035460a060020a900460ff1681565b60048054600181600116156101000203166002900480601f01602080910402602001604051908101604052809291908181526020018280546001816001161561010002031660029004801561041b5780601f106103f05761010080835404028352916020019161041b565b820191906000526020600020905b8154815290600101906020018083116103fe57829003601f168201915b505050505081565b600160a060020a03338116600081815260026020908152604080832094871680845294909152808220859055909291907f8c5be1e5ebec7d5bd14f71427d1e84f3dd0314c0f7b2291e5b200ac8c7c3b9259085905190815260200160405180910390a350600192915050565b60015490565b6000600160a060020a03831615156104ac57600080fd5b600160a060020a0384166000908152602081905260409020548211156104d157600080fd5b600160a060020a038085166000908152600260209081526040808320339094168352929052205482111561050457600080fd5b600160a060020a03841660009081526020819052604090205461052d908363ffffffff610bc216565b600160a060020a038086166000908152602081905260408082209390935590851681522054610562908363ffffffff610bd416565b600160a060020a03808516600090815260208181526040808320949094558783168252600281528382203390931682529190915220546105a8908363ffffffff610bc216565b600160a060020a03808616600081815260026020908152604080832033861684529091529081902093909355908516917fddf252ad1be2c89b69c2b068fc378daa952ba7f163c4a11628f55a4df523b3ef9085905190815260200160405180910390a35060019392505050565b60065460ff1681565b60035460009033600160a060020a0390811691161461063c57600080fd5b60035460a060020a900460ff161561065357600080fd5b600154610666908363ffffffff610bd416565b600155600160a060020a038316600090815260208190526040902054610692908363ffffffff610bd416565b600160a060020a0384166000818152602081905260409081902092909255907f0f6798a560793a54c3bcfe86a93cde1e73087d944c0ea20544137d41213968859084905190815260200160405180910390a2600160a060020a03831660007fddf252ad1be2c89b69c2b068fc378daa952ba7f163c4a11628f55a4df523b3ef8460405190815260200160405180910390a350600192915050565b600160a060020a0333811660009081526002602090815260408083209386168352929052908120548083111561078957600160a060020a0333811660009081526002602090815260408083209388168352929052908120556107c0565b610799818463ffffffff610bc216565b600160a060020a033381166000908152600260209081526040808320938916835292905220555b600160a060020a0333811660008181526002602090815260408083209489168084529490915290819020547f8c5be1e5ebec7d5bd14f71427d1e84f3dd0314c0f7b2291e5b200ac8c7c3b925915190815260200160405180910390a35060019392505050565b600160a060020a031660009081526020819052604090205490565b60035460009033600160a060020a0390811691161461085f57600080fd5b60035460a060020a900460ff161561087657600080fd5b6003805474ff0000000000000000000000000000000000000000191660a060020a1790557fae5184fba832cb2b1f702aca6117b8d265eaf03ad33eb133f19dde0f5920fa0860405160405180910390a150600190565b600354600160a060020a031681565b60058054600181600116156101000203166002900480601f01602080910402602001604051908101604052809291908181526020018280546001816001161561010002031660029004801561041b5780601f106103f05761010080835404028352916020019161041b565b6000600160a060020a038316151561095d57600080fd5b600160a060020a03331660009081526020819052604090205482111561098257600080fd5b600160a060020a0333166000908152602081905260409020546109ab908363ffffffff610bc216565b600160a060020a0333811660009081526020819052604080822093909355908516815220546109e0908363ffffffff610bd416565b60008085600160a060020a0316600160a060020a031681526020019081526020016000208190555082600160a060020a031633600160a060020a03167fddf252ad1be2c89b69c2b068fc378daa952ba7f163c4a11628f55a4df523b3ef8460405190815260200160405180910390a350600192915050565b600160a060020a033381166000908152600260209081526040808320938616835292905290812054610a90908363ffffffff610bd416565b600160a060020a0333811660008181526002602090815260408083209489168084529490915290819020849055919290917f8c5be1e5ebec7d5bd14f71427d1e84f3dd0314c0f7b2291e5b200ac8c7c3b92591905190815260200160405180910390a350600192915050565b600160a060020a03918216600090815260026020908152604080832093909416825291909152205490565b60035433600160a060020a03908116911614610b4257600080fd5b600160a060020a0381161515610b5757600080fd5b600354600160a060020a0380831691167f8be0079c531659141344cd1fd0a4f28419497f9722a3daafe3b4186f6b6457e060405160405180910390a36003805473ffffffffffffffffffffffffffffffffffffffff1916600160a060020a0392909216919091179055565b600082821115610bce57fe5b50900390565b600082820183811015610be357fe5b93925050505600a165627a7a72305820cffd20c6d70208a06bd925631ec7eb9a5070f733ebd36eb3ccb37d2df94c72d30029",
  "source": "pragma solidity 0.4.19;\n\nimport \"./VervFluxToken.sol\";\nimport \"zeppelin-solidity/contracts/lifecycle/Pausable.sol\";\nimport \"zeppelin-solidity/contracts/crowdsale/CappedCrowdsale.sol\";\nimport \"zeppelin-solidity/contracts/token/ERC20/TokenVesting.sol\";\n\n\ncontract VervFluxCrowdsale is CappedCrowdsale, Ownable, Pausable {\n    using SafeMath for uint256;\n\n    enum Stages {\n        PreSale,\n        Sale,\n        SaleOver\n    }\n\n    enum VestingDuration {\n        Mo3,\n        Mo6,\n        Mo12\n    }\n\n    // Predefined value mappings\n    mapping (uint => uint256) public vestingDurations;\n    mapping (address => uint256) public finalizationRetainStrategy;\n    mapping (uint => uint256) public bonuses;\n\n    // Invariants\n    uint256 public maxAllowedFirstDayInvestment = 10 ether; // 10 ETH allowed during 1'st day\n    uint256 public lockupPeriod = 1 years / 4; // 3 months lockup\n\n    // Whitelisted participants\n    mapping (address => bool) public whitelist;\n\n    // Tokens vesting\n    mapping (address => TokenVesting) public vestingContracts;\n\n    // Sale status\n    Stages public stage = Stages.PreSale;\n    address public companyWallet;\n    address public bountyWallet;\n    bool public isFinalized = false;\n    \n    event Finalized();\n    event WhitelistParticipant(address indexed investor);\n    event CapUpdated(uint256 cap, uint256 newCap);\n    event StageUpdated(uint stage, uint newStage);\n\n    // Check the stage to be the specified one\n    modifier atStage(Stages _stage) {\n        require(stage == _stage);\n        _;\n    }\n\n    // Check the stage to be before specified one\n    modifier beforeStage(Stages _stage) {\n        require(uint(stage) < uint(_stage));\n        _;\n    }\n\n    // Performs stage transition\n    // this modifier first, otherwise the guards\n    // will not take the new stage into account.\n    modifier transitionGuard() {\n        transition();\n        _;\n        transition();\n    }\n\n    // Constructor\n    // _owner = (TBD)\n    // _companyWallet = (TBD)\n    // _bountyWallet = (TBD)\n    // _wallet = (TBD)\n    // _cap = 20M * ETH/ rate\n    function VervFluxCrowdsale(\n        address _owner,\n        address _companyWallet,\n        address _bountyWallet,\n        address _wallet, \n        uint256 _cap\n    )\n        public\n        Crowdsale(\n            1522454400, // startTime (Saturday, March 31, 2018 12:00:00 AM)\n            1522800000, // endTime (Wednesday, April 4, 2018 12:00:00 AM)\n            2000, // rate\n            _wallet // wallet\n        )\n        CappedCrowdsale(_cap)\n    {\n        require(_owner != 0x0);\n        require(_companyWallet != 0x0);\n        require(_bountyWallet != 0x0);\n\n        owner = _owner;\n        companyWallet = _companyWallet;\n        bountyWallet = _bountyWallet;\n\n        // Define tokens percentage retained by company and bounty\n        finalizationRetainStrategy[companyWallet] = 33;\n        finalizationRetainStrategy[bountyWallet] = 1;\n\n        // Define vesting periods\n        vestingDurations[uint(VestingDuration.Mo3)] = 1 years / 4;\n        vestingDurations[uint(VestingDuration.Mo6)] = 1 years / 2;\n        vestingDurations[uint(VestingDuration.Mo12)] = 1 years;\n    }\n\n    // /************ Public functionality ************/\n\n    // Check if participant was whitelisted\n    function isParticipantWhitelisted(address investor) public view returns (bool) {\n        return whitelist[investor];\n    }\n\n    // @return true if crowdsale event has ended\n    function hasEnded() public view returns (bool) {\n        return stage == Stages.SaleOver;\n    }\n\n    // Invest function\n    function buyTokens(address beneficiary)\n        public\n        payable\n        whenNotPaused\n        transitionGuard\n        atStage(Stages.Sale)\n    {\n        require(validInvestment(beneficiary));\n\n        super.buyTokens(beneficiary);\n    }\n\n    // Properly finalize crowdsale\n    function finalize()\n        public\n        whenNotPaused\n        transitionGuard\n        atStage(Stages.SaleOver)\n    {\n        require(!isFinalized);\n\n        isFinalized = true;\n\n        uint256 campanyRetainPerc = finalizationRetainStrategy[companyWallet];\n        uint256 bountyRetainPerc = finalizationRetainStrategy[bountyWallet];\n        uint256 tokensDistributed = token.totalSupply();\n        uint256 investorsMarge = 100 - campanyRetainPerc - bountyRetainPerc;\n\n        require(tokensDistributed > 0);\n\n        uint256 totalTokens = tokensDistributed / investorsMarge * 100;\n        uint256 companyDist = totalTokens * campanyRetainPerc / 100;\n        uint256 bountyDist = totalTokens * bountyRetainPerc / 100;\n\n        token.mint(companyWallet, companyDist);\n        token.mint(bountyWallet, bountyDist);\n\n        token.finishMinting();\n        Finalized();\n    }\n\n    // Retrieve vesting contracts\n    function vestingContract(address beneficiary) public view returns (TokenVesting) {\n        return vestingContracts[beneficiary];\n    }\n\n    // /************ Owner functionality ************/\n\n    // Update rate\n    function updateRate(uint256 newRate)\n        public\n        onlyOwner\n        transitionGuard\n        atStage(Stages.PreSale)\n    {\n        require(newRate > 0);\n\n        rate = newRate;\n    }\n\n    // Update start time\n    function updateStartTime(uint256 newStartTime)\n        public\n        onlyOwner\n        transitionGuard\n        atStage(Stages.PreSale)\n    {\n        require(newStartTime > 0);\n        require(newStartTime < endTime);\n\n        startTime = newStartTime;\n    }\n\n    // Update end time\n    function updateEndTime(uint256 newEndTime)\n        public\n        onlyOwner\n        transitionGuard\n        atStage(Stages.PreSale)\n    {\n        require(newEndTime > 0);\n        require(newEndTime > startTime);\n\n        endTime = newEndTime;\n    }\n\n    // Update sale cap to keep it 20M\n    function updateCap(uint256 newCap)\n        public\n        onlyOwner\n        transitionGuard\n        beforeStage(Stages.SaleOver)\n    {\n        require(newCap > cap);\n\n        uint256 oldCap = cap;\n        cap = newCap;\n\n        CapUpdated(oldCap, cap);\n    }\n\n    // Whitelist participant\n    function whitelistParticipant(address investor)\n        public\n        whenNotPaused\n        onlyOwner\n        transitionGuard\n        atStage(Stages.PreSale)\n    {\n        require(investor != 0x0);\n\n        whitelist[investor] = true;\n\n        WhitelistParticipant(investor);\n    }\n\n    // Disburse presale investment\n    function disbursePresaleInvestment(\n        address beneficiary,\n        uint256 tokensAmount,\n        VestingDuration vestingDuration\n    )\n        public\n        payable\n        whenNotPaused\n        onlyOwner\n        transitionGuard\n        atStage(Stages.PreSale)\n    {\n        require(beneficiary != 0x0);\n        require(tokensAmount > 0);\n        \n        uint256 duration = vestingDurations[uint(vestingDuration)];\n\n        require(duration > 0);\n\n        if (vestingContracts[beneficiary] == TokenVesting(0x0)) {\n            vestingContracts[beneficiary] = new TokenVesting(\n                beneficiary, // beneficiary\n                now + lockupPeriod, // start\n                0, // cliff\n                duration, // duration\n                false // revokable\n            );\n        }\n\n        token.mint(address(vestingContracts[beneficiary]), tokensAmount);\n\n        if (msg.value > 0) {\n            forwardFunds();\n        }\n    }\n\n    // /************ Internal functionality ************/\n\n    // Make the stage transition if the case\n    function transition() internal {\n        // If it's time to start the sale\n        if (stage == Stages.PreSale && now > startTime) {\n            nextStage();\n        }\n\n        // If sale running and wither cap or endTime is reached\n        if (stage == Stages.Sale && super.hasEnded()) {\n            nextStage();\n        }\n    }\n\n    // Creates the token to be sold.\n    function createTokenContract() internal returns (MintableToken) {\n        return new VervFluxToken();\n    }\n\n    // Validate investment\n    function validInvestment(address beneficiary) internal view returns (bool) {\n        bool allowedToInvest = false;\n        bool validAmount = false;\n\n        if (now < (startTime + 2 days)) { // Allow only whitelisted addresses to invest first 2 days\n            allowedToInvest = isParticipantWhitelisted(beneficiary);\n\n            if (now < (startTime + 1 days)) { // Allow max. investment of 10 ETH on first day\n                validAmount = msg.value <= maxAllowedFirstDayInvestment;\n            } else {\n                validAmount = true;\n            }\n        } else {\n            allowedToInvest = true;\n            validAmount = true;\n        }\n\n        return allowedToInvest && validAmount;\n    }\n\n    // Get token amount to transfer\n    function getTokenAmount(uint256 weiAmount) internal view returns (uint256) {\n        uint256 finalRate = rate;\n\n        if (now < (startTime + 1 days)) {\n            finalRate = rate + (rate * 150 / 1000); // 15% bonus\n        } else if (now < (startTime + 2 days)) {\n            finalRate = rate + (rate * 125 / 1000); // 12.5% bonus\n        } else if (now < (startTime + 3 days)) {\n            finalRate = rate + (rate * 100 / 1000); // 10% bonus\n        }\n\n        return weiAmount * finalRate;\n    }\n\n    // Transit to the next stage\n    function nextStage() internal {\n        uint oldStage = uint(stage);\n        uint newStage = oldStage + 1;\n\n        stage = Stages(newStage);\n\n        StageUpdated(oldStage, newStage);\n    }\n}\n",
  "sourcePath": "/Users/alexandrcucer/Desktop/Projects/verv-flux-ico/contracts/VervFluxCrowdsale.sol",
  "compiler": {
    "name": "solc",
    "version": "0.4.19+commit.c4cbbb05.Emscripten.clang"
  },
  "schemaVersion": "1.0.1",
  "updatedAt": "2018-02-20T13:55:50.374Z"
}